:020000040800F2
:10000000200C00209D0100088515000853110008F0
:100010008115000811090008FD37000800000000E4
:10002000000000000000000000000000D11C0008DB
:10003000D10C000800000000011600083927000854
:10004000B7010008B7010008B7010008B7010008B0
:10005000B7010008B7010008B7010008B7010008A0
:10006000B7010008B7010008B7010008B701000890
:10007000B7010008B7010008B7010008B701000880
:10008000B7010008B7010008B7010008B701000870
:10009000B7010008B7010008B7010008B701000860
:1000A000B7010008B7010008B7010008B701000850
:1000B000B7010008B7010008B7010008B701000840
:1000C000B7010008B7010008B7010008B701000830
:1000D000B7010008392A0008DD2B0008AD2E000802
:1000E000950F0008B7010008B7010008B701000824
:1000F000B7010008B7010008B7010008B701000800
:10010000B7010008B7010008B7010008B7010008EF
:1001100081290008B7010008B7010008112800086C
:10012000B7010008B7010008B7010008B7010008CF
:10013000B7010008B7010008B7010008B7010008BF
:10014000B7010008B7010008B7010008B7010008AF
:10015000B7010008B7010008B7010008E130000846
:10016000B7010008B7010008B7010008B70100088F
:10017000B7010008B7010008B7010008B70100087F
:10018000B7010008B7010008DFF80CD000F0BAF999
:10019000004800470D410008200C00200648804719
:1001A00006480047FEE7FEE7FEE7FEE7FEE7FEE75C
:1001B000FEE7FEE7FEE7FEE7A92700088901000841
:1001C0002DE9FE4F81EA030404F0004421F00041D0
:1001D00000944FF0000B23F0004350EA01045ED07E
:1001E00052EA03045BD0C3F30A54C1F30A552C440A
:1001F000A4F2F3340194A0FB0254C1F3130141F4BF
:100200008011C3F3130343F4801301FB024400FB8A
:10021000034E840A970A44EA815447EA8357A4FBB1
:10022000076802958D0A05FB07854FEA932C04FBAE
:100230000C542705029D4FEA065847EA1637B5EBDE
:1002400008056EEB070C870E920E47EA811742EA0B
:100250008312A7FB0201B6EB0B0164EB00042B0D2C
:1002600043EA0C335E1844EB1C50DA465146E7FB78
:100270000201C5F313044FEA0B3343EA14534FEA68
:100280000432019C43EA0603A4F10C040294009C8E
:10029000CDE900B400F0E8F803B0BDE8F08F00202D
:1002A0000146F9E72DE9F04D81EA030404F0004B23
:1002B00021F0004514464FF0000A23F0004150EAB7
:1002C000050220D054EA01021DD0C5F30A570246A8
:1002D000C5F31303C1F31300C1F30A5640F48015AC
:1002E00043F48013A7EB0608101BD64608F2FD382E
:1002F00073EB050002D308F1010801E092185B419D
:10030000B8F1000F03DA00200146BDE8F08D0020AF
:100310004FF48011064684460EE0171B73EB050769
:1003200005D3121B63EB050306434CEA010C490895
:100330004FEA300092185B4150EA0107EDD152EAD2
:10034000030012D082EA040083EA0501084305D0C5
:10035000101BAB4106D20122002306E000224FF021
:10036000004302E06FF0010253101AEB06004CEB61
:10037000085110EB0A0041EB0B01BDE8F04D00F015
:1003800064B80EB5C10F80EAE0700844CA070021C6
:1003900040F233438DE80E000A460B4600F064F845
:1003A00003B000BD01F0004330B421F0004150EA39
:1003B000010206D00A0DA2F56072C1F31301002AF2
:1003C00002DC30BC00207047440F44EAC104C10085
:1003D000E01830BC00EBC250AFF300800029A8BF8A
:1003E0007047401C490008BF20F00100704710B45E
:1003F000B0FA80FC00FA0CF050EA010404BF10BC13
:10040000704749B1CCF1200421FA04F411FA0CF13F
:1004100018BF012121430843A3EB0C01CB1D4FEA78
:1004200000614FEA102042BF002010BC704700EB73
:10043000C35010440029A4BF10BC7047401C4900A1
:1004400008BF20F0010010BC704710B5141E73F1F6
:10045000000408DA401C41F1000192185B411A4384
:1004600001D120F0010010BD2DE9F04D92469B46D0
:1004700011B1B1FA81F202E0B0FA80F22032904676
:1004800000F052F804460F4640EA0A0041EA0B0128
:1004900053465A46084313D0114653EA010019D077
:1004A000C8F14002504600F04EF805460E46504650
:1004B0005946424600F038F8084305D0012004E0D0
:1004C00020463946BDE8F08D0020054346EAE07637
:1004D0002C4337430A986305E40AA0EB0800002286
:1004E000FD0A44EA47540A3002D500200146E9E7F4
:1004F000010510196941DDE9084500196941BDE8A8
:10050000F04DA2E7064C074D06E0E06840F001031D
:1005100094E8070098471034AC42F6D3FFF738FE52
:100520006C4200088C420008202A04DB203A00FAC2
:1005300002F1002070479140C2F1200320FA03F33A
:10054000194390407047202A04DB203A21FA02F038
:100550000021704721FA02F3D040C2F120029140FD
:1005600008431946704770B58C1810F8015B15F0F8
:10057000070301D110F8013B2A1106D110F8012B15
:1005800003E010F8016B01F8016B5B1EF9D12B073A
:1005900005D40023521E0DD401F8013BFAE710F8F0
:1005A000013BCB1A921C03E013F8015B01F8015BDD
:1005B000521EF9D5A142D8D3002070BD21B1826866
:1005C00042F00102826003E0826822F00102826050
:1005D000704700000021084A1168084A1140D0E91C
:1005E00000231A4383681A43C3681A431143044A19
:1005F000C2F804137047000004230140E030FCFF00
:100600000020014021B1826842F48072826003E0E0
:10061000826822F480728260704721B1826842F45D
:100620000072826003E0826822F400728260704788
:1006300000B58DB00121022001F00CF80121080263
:1006400001F028F801200B9003208DF830000020E5
:100650008DF833000BA9214800F004FD01210802A8
:1006600001F028F800214FF4807001F023F80020F9
:1006700007904FF470600A904FF48040099080001A
:10068000089007A8FFF7A6FF002001908DF808004A
:1006900001208DF8090000200390059001208DF8BD
:1006A000180001A90E4800F01DF801210C48FFF7C1
:1006B00085FF072301220821094800F03DF800F0DA
:1006C00077F9074800F094F801210548FFF7A5FFE6
:1006D00001210348FFF796FF0DB000BD0004024062
:1006E0000020014030B50246002000235068104C25
:1006F00020400D790C6844EA05242043506090683E
:100700000C4C2040D1E903542C438D682C434D7987
:1007100044EA450420439060D06A20F470000C7DC8
:10072000641EE4B2234340EA0350D06230BD0000AF
:10073000FFFEFFFCFDF7FFC0F0B504460D460020AC
:100740000021092D11DDE068A5F10A0606EB460738
:10075000072606FA07F18843A5F10A0606EB4606C6
:1007600003FA06F10843E0600CE0206905EB450759
:10077000072606FA07F1884305EB450603FA06F15A
:1007800008432061072A0FDA606B561E06EB8607C6
:100790001F2606FA07F18843561E06EB860605FA61
:1007A00006F10843606322E00D2A0FDA206BD61FA2
:1007B00006EB86071F2606FA07F18843D61F06EBCD
:1007C000860605FA06F10843206310E0E06AA2F10C
:1007D0000D0606EB86071F2606FA07F18843A2F1ED
:1007E0000D0606EB860605FA06F10843E062F0BD49
:1007F000816841F080418160704700001CB5012193
:10080000102000F027FF4FF40060009001208DF8C9
:10081000040000208DF806008DF8070002208DF8F6
:1008200005006946014800F01DFC1CBD0010024097
:1008300010B500F067FD00F04DFDFFF7F9FEFFF782
:10084000DDFF01F0C7F800F069FB4FF4E13002F082
:10085000A7F94FF4E13002F00BFB4FF4E13000F068
:10086000ADFF532140F2F31001F0E2FF10BD000094
:1008700010B51C480078012833D11B4800780128A6
:100880002FD11A4890ED000ADFED190AB4EEE00A04
:10089000F1EE10FA06D81748007818B99FED140A3F
:1008A00002F0F4FE14480078D8B914480078C0B9B2
:1008B0000E4890ED010ADFED120AB4EEE00AF1EE07
:1008C00010FA08D390ED010ADFED0E0AB4EEE00A4B
:1008D000F1EE10FA05DDDFED0C0A9FED0C0A00F0D9
:1008E000D5FC10BD5B0200205A020020BC0700208E
:1008F00000409C455302002050020020510200207D
:100900000080A2440080D44400401C450080BB44C9
:1009100000BFFEE770B502460C46FF25FF2309E045
:1009200012F8010B80EA03010648405C80EA0503E7
:100930000548455C201EA4F10106F4B2F0D145EA59
:10094000032070BD4A0000204A01002010B5114864
:10095000007D00F0870040F030000E4908750E4819
:100960000078012814D10D480068642805DA4FF496
:1009700000410B4800F0E1FB0AE04FF40041084859
:1009800000F0DDFB022004490870002003490860E4
:1009900010BD0000F40700206D020020700200204E
:1009A000000C02400149487570470000F407002020
:1009B00000B58FB00121880500F04CFE00BF15483E
:1009C00000F0E6F80028FAD100901348019013488F
:1009D00002900020039001200490002005900690D2
:1009E0004FF4006007900890C010099040020A90F0
:1009F00000200B9001200C9000200D900E90694675
:100A0000044800F0F1F80121024800F009F80FB0A5
:100A100000BD0000106402404C2001403A0000205C
:100A200021B1026842F00102026003E0026822F094
:100A30000102026070470000016821F001010160BD
:100A40000021016041608160C1600161212141613B
:100A50004A49884204D13D21484A103A91608CE0CD
:100A600046491831884205D14FF47461434A103A1F
:100A7000916082E041493031884205D14FF47411D0
:100A80003E4A103A916078E03C494831884205D1AD
:100A90004FF07461394A103A91606EE03749603125
:100AA000884204D13649354A103AD16065E033496D
:100AB0007831884204D13349304A103AD1605CE041
:100AC0002E499031884204D12F492C4A103AD160E6
:100AD00053E02A49A831884205D14FF03D51274AB9
:100AE000103AD16049E02949884204D13D21274A82
:100AF000083A116041E025491831884205D14FF488
:100B00007461224A083A116037E020493031884246
:100B100005D14FF474111D4A083A11602DE01B49AC
:100B20004831884205D14FF07461184A083A116083
:100B300023E016496031884204D11149134A121F3B
:100B400011601AE011497831884204D10D490F4AE9
:100B5000121F116011E00D499031884204D10A49F9
:100B60000A4A121F116008E00849A831884204D1DE
:100B70004FF03D51054A121F11607047106002404E
:100B80003D000020400F002000003D201064024086
:100B9000014600200A6802F001020AB1012000E0CB
:100BA000002070470146486880B2704710B501F0D8
:100BB00080034BB122B1436943F08003436103E0FA
:100BC000436923F08003436180290BD02AB1036875
:100BD00001F01E042343036004E0036801F01E04D7
:100BE000A343036010BD000010B500220268134B40
:100BF0001A40CC680B6823434C6923438C69234318
:100C0000CC6923430C6A23434C6A23438C6A2343F5
:100C10004C6B23438C6B23431A430260426922F0DE
:100C20000702D1E90B3423431A4342610B69436045
:100C30004B6883608B68C36010BD00003F801CF070
:100C40004160704770B505460C46FDB9012C18D1BE
:100C50001C4890ED010AB5EEC00AF1EE10FA06D973
:100C600090ED020AB5EEC00AF1EE10FA05D80020A8
:100C70001549087000F01CFF23E00120124908709C
:100C80001FE0F4B9002000F047FF1AE0012D18D151
:100C9000012C12D10B4890ED000AB5EEC00AF1EE1E
:100CA00010FA06D8002009490870012000F000FF62
:100CB00007E001200549087003E014B9012000F0A5
:100CC0002BFF70BDBC0700205A0200205B020020F1
:100CD0007047000010B52DED048BB0EE409A9FEDEB
:100CE000750AB0EE408A9FED730AF0EE408A7248B2
:100CF00090ED000AB5EEC00AF1EE10FA03D290EDC5
:100D0000030A80ED000A6C4890ED000A30EE490AB3
:100D1000B0EE408A90ED000A80ED030AB5EEC08A7D
:100D2000F1EE10FA02D2B1EE480A01E0B0EE480A44
:100D3000DFED620AB4EEE00AF1EE10FA16DDB5EE70
:100D4000C08AF1EE10FA10DB4FF480415C4800F0ED
:100D5000F4F9594890ED000ABCEEC00A10EE100AF2
:100D6000584908700120584908709FE0B5EEC08AC4
:100D7000F1EE10FA02D2B1EE480A01E0B0EE480AF4
:100D8000DFED4E0AB4EEE00AF1EE10FAEDD29FED7F
:100D90004F0AB4EEC08AF1EE10FA04DDB0EE480A54
:100DA00002F02EFD0EE04FF48041454800F0C7F9F7
:100DB00000204549087046490870464908600120EE
:100DC00045490870454890ED020AB5EEC00AF1EEBB
:100DD00010FA04D290ED020AB1EE400A02E03F4858
:100DE00090ED020AF2EE040AB4EEE00AF1EE10FA17
:100DF00016DC3A4890ED030AB5EEC00AF1EE10FA9F
:100E000004D290ED030AB1EE400A02E0334890EDBF
:100E1000030AF2EE040AB4EEE00AF1EE10FA0EDD77
:100E20004FF48041264800F08AF9002026490870D6
:100E3000274908702749086001202749087038EEC3
:100E4000680AB5EEC00AF1EE10FA04D2B1EE480A13
:100E500030EE680A01E038EE680ADFED210AB4EEF0
:100E6000E00AF1EE10FA1CD21E480078401C1D4921
:100E7000087008460078052816DD4FF480411048B8
:100E800000F05DF9002010490870164908701049FB
:100E90000870104908601349087001200E49087055
:100EA00002E000200F490870F0EE488ABDEC048B88
:100EB00010BD000000000000BC07002000007A44C4
:100EC000000C024055020020590200200000484357
:100ED000650200206802002052020020E007002086
:100EE0000000C842A202002010B52DED028BB0EE2A
:100EF000408A08480078012808D10748007820B9BE
:100F0000B0EE480AFFF7E6FE00E000BFBDEC028B42
:100F100010BD00005B0200205202002000B585B029
:100F20000121082000F096FB4FF4006003900020A0
:100F30008DF8100002208DF8110003A9144800F06C
:100F400091F80121880300F0A5FB0A21042000F09C
:100F5000C1FE4FF48060009000208DF8040008204E
:100F60008DF8050001208DF80600684600F030F885
:100F700028208DF8080000208DF809008DF80A005F
:100F800001208DF80B0002A800F0FEFA05B000BDAC
:100F9000000C024010B54FF4806000F00DF818B15D
:100FA0004FF4806000F002F810BD000001490860B5
:100FB00070470000143C014001460020034A1268BB
:100FC0000A400AB1012000E000207047143C0140B3
:100FD000002123498279002A3AD00A461268036820
:100FE0009A430B461A600A1D126803689A430B1D48
:100FF0001A60027911440A6803681A430A60184AA1
:101000000832126803689A43154B08331A601A1D98
:10101000126803689A43124B0C331A604279102A03
:101020000ED11A1F126803681A430D4B08331A6059
:101030001A1D126803681A43094B0C331A600DE03D
:101040000749427911440A6803681A430A6005E0B7
:10105000027911440A6803689A430A6070470000E5
:10106000003C0140F0B50A4600210023002400BFE7
:101070003DE0012505FA01F3156805EA03049C42E9
:1010800034D105684F000326BE40B543056015798D
:101090004E00B5400668354305601579012D02D034
:1010A0001579022D16D185684F000326BE40B54341
:1010B000856055794E00B540866835438560456842
:1010C00001268E40B5434560456896798E40B6B29C
:1010D00035434560C5684F000326BE40B543C56033
:1010E000D5794E00B540C6683543C560491C102906
:1010F000BFD3F0BDF0B5002300244D07ED0E02FA7A
:1011000005F3CE1000F1200555F826504E07F70ED6
:101110000F26BE40B543CF1000F1200646F82750F9
:10112000CE1000F1200555F8265045EA0304CE10F4
:1011300000F1200545F82640F0BD4183704701834A
:10114000704710B5FFF702FC10BD10B500F084FC2D
:1011500010BD00BFFEE7000010B52DED028BF0EED4
:10116000408AB0EE608A4448007840B90020434984
:1011700008704349086001203F49087078E03E4804
:101180000078012838D13F4800680A282BDAF5EEAC
:10119000C08AF1EE10FA05DD4FF400413A48FFF73E
:1011A000CCFF65E0F5EEC08AF1EE10FA05D24FF4FF
:1011B00080413548FFF7C1FF5AE0B5EEC08AF1EE35
:1011C00010FA05DD4FF480512F48FFF7B6FF4FE0CE
:1011D000B5EEC08AF1EE10FA4AD24FF400512A4817
:1011E000FFF7ABFF44E024480078401C2249087018
:1011F0000020244908603BE01F480078022837D1CE
:10120000204800680A282BDAF5EEC08AF1EE10FAC1
:1012100005DD4FF400411C48FFF791FF28E0F5EE93
:10122000C08AF1EE10FA05D24FF480411648FFF75C
:1012300086FF1DE0B5EEC08AF1EE10FA05DD4FF431
:1012400080511148FFF77BFF12E0B5EEC08AF1EE46
:1012500010FA0DD24FF400510B48FFF770FF07E072
:1012600005480078401E04490870002005490860C0
:10127000BDEC028B10BD0000650200205C02002066
:1012800060020020680200200004024010B52DED2D
:10129000028BF0EE408AB0EE608A0B48007801289D
:1012A0000ED10A48007820B9B0EE680A02F0F4FACC
:1012B00006E00748007818B9B0EE480A02F0FCFBD7
:1012C000BDEC028B10BD00005A020020500200202D
:1012D000510200201CB50121102000F0BBF938207C
:1012E000009000208DF8040001208DF807000220F6
:1012F0008DF8050069460248FFF7B4FE1CBD0000EA
:10130000001002401CB50121084600F0A3F9082096
:10131000009001208DF8040000208DF806008DF863
:10132000070002208DF8050069460248FFF79AFE83
:101330001CBD00000000024010B500F077F9134812
:10134000007818B90120114908701DE00F48007895
:10135000012802D1FFF7FAFA16E00C4800780228BB
:1013600012D100F04FF90A4890F90000801C58B9DA
:10137000FF200849087006490870002006490870D7
:10138000064908700149087010BD00006D02002078
:101390004900002048000020A30200202400002073
:1013A00010B500F043F91348007818B9012011492D
:1013B00008701DE00F480078012802D1FFF7C6FA37
:1013C00016E00C480078022812D100F01BF90A48F8
:1013D00090F90000801C58B9FF20084908700649A0
:1013E0000870002006490870064908700149087015
:1013F00010BD0000740200204900002048000020B9
:10140000A30200202400002010B52DED028BB0EEC9
:10141000408A00F00BF92548007810B9244800787C
:1014200020B901210020FFF70DFC3CE020480078A6
:10143000012838D11F48007820B9B0EE480A02F0E0
:101440002BFA30E01B480078012815D100F0DAF8BB
:10145000194890F90000801C28BBFF20174908702C
:101460001549087000201149087015490870114984
:10147000087000F051FB16E00E480078022812D1E7
:1014800000F0C0F80C4890F90000801C58B9FF200B
:101490000A49087008490870002004490870084982
:1014A000087004490870BDEC028B10BDA302002037
:1014B0005A0200205002002049000020480000206D
:1014C0002400002010B52DED028BB0EE408A00F014
:1014D000ADF82548007810B92448007820B90121DA
:1014E0000020FFF7AFFB3CE020480078012838D10E
:1014F0001F48007820B9B0EE480A02F0DDFA30E06B
:101500001B480078012815D100F07CF8194890F9A3
:101510000000801C28BBFF2017490870154908707F
:10152000002011490870154908701149087000F031
:10153000F3FA16E00E480078012812D100F062F8A4
:101540000C4890F90000801C58B9FF200A49087027
:1015500008490870002004490870084908700449C7
:101560000870BDEC028B10BDA30200205A020020BF
:1015700051020020490000204800002024000020E3
:1015800000BFFEE77047000070B5002100230F2266
:10159000C4781CB3174C246804F4E064C4F5E06418
:1015A000C4F30721C1F10404E3B20A4144789C402A
:1015B000E1B28478144021430C07210E0E4C0578CB
:1015C0006155047804F01F050124AC4005786D11C5
:1015D000AD0005F1E025C5F8004109E0047804F00C
:1015E0001F050124AC40054D0678761145F82640CC
:1015F00070BD00000CED00E000E400E080E100E0E0
:101600007047000010B5084890F90000401C10B960
:10161000002005490870044890F90000002801DB0B
:1016200000F09CF910BD00004900002010B50848EA
:1016300090F90000401C10B90020054908700448CA
:1016400090F90000002801DB00F0A6F910BD0000B1
:101650004800002029B1064A12680243044B1A6070
:1016600004E0034A12688243014B1A60704700008D
:101670003038024029B1064A12680243044B1A600E
:1016800004E0034A12688243014B1A60704700006D
:101690004038024029B1064A12680243044B1A60DE
:1016A00004E0034A12688243014B1A60704700004D
:1016B0004438024029B1064A12680243044B1A60BA
:1016C00004E0034A12688243014B1A60704700002D
:1016D00024380240F0B50021002200240225002613
:1016E0000223324F3F6807F00C0121B1042905D0D5
:1016F000082937D105E02E4F076036E02D4F0760EF
:1017000033E02A4F3F1F3F68C7F38056274F3F1FE4
:101710003F6807F03F036EB1264FB7FBF3F7DFF8E2
:101720008CC0ACF1040CDCF800C0CCF3881C07FBC7
:101730000CF40CE01E4FB7FBF3F7DFF870C0ACF110
:10174000040CDCF800C0CCF3881C07FB0CF4174F2A
:101750003F1F3F68C7F301477F1C7D00B4FBF5F7CF
:10176000076002E0124F076000BF00BF0F4F3F68E5
:1017700007F0F0010909104F7A5C0768D74047600D
:101780000A4F3F6807F4E051890A0B4F7A5C4768BB
:10179000D7408760054F3F6807F46041490B064F0B
:1017A0007A5C4768D740C760F0BD00000838024047
:1017B0000024F40000127A00140000201CB5044636
:1017C000204601F087FC01210846FFF743FF062071
:1017D000009001208DF8040000208DF80600032001
:1017E0008DF8050001208DF8070069460548FFF7D0
:1017F00039FC02210348FFF7A0FC04210148FFF750
:101800009CFC1CBD0000024070B5B4B00024002553
:101810000026002033904E4802782146641C1AA806
:1018200042544B48C2792146641C1AA84254484885
:1018300082792146641C1AA84254454842792146BF
:10184000641C1AA842544248C27A2146641C1AA851
:1018500042543F48827A2146641C1AA842543C48AC
:10186000427A2146641C1AA842543948C27B204659
:10187000611CCCB21AA90A543548827B2046611CEF
:10188000CCB21AA90A543248427B2046611CCCB221
:101890001AA90A542E48C27C2046611CCCB21AA94F
:1018A0000A542B48827C2046611CCCB21AA90A54E7
:1018B0002748427D2046611CCCB21AA90A5424480C
:1018C000027D2046611CCCB21AA90A542048427DF0
:1018D0002046611CCCB21AA90A541D48027D20463C
:1018E000611CCCB21AA90A54012508E01AA8425D6D
:1018F0003046711CCEB201A90A54681CC5B2A5427B
:10190000F4DB314601A8FFF705F833909DF8CD20B0
:101910002046611CCCB21AA90A549DF8CC2020465E
:10192000611CCCB21AA90A5401200A49086000209F
:101930000949C1F8880221461AA801F09FFA00203F
:101940000449086001200449C1F8880234B070BD20
:10195000F4070020840240420000404210B50C48C9
:1019600090F9000000280ADB094890F900000A28D5
:1019700005DC4FF480610748FFF7DFFB07E0FE203E
:10198000034908704FF480610248FFF7D8FB10BD8F
:10199000490000200010024010B50C4890F90000EA
:1019A00000280ADB094890F900000A2805DC4FF4FA
:1019B00000710748FFF7C1FB07E0FE2003490870EC
:1019C0004FF400710248FFF7BAFB10BD4800002039
:1019D000001002401CB501211A20FFF73BFE4FF416
:1019E0007040009001208DF8040000208DF8060062
:1019F0008DF8070002208DF8050069461348FFF7AF
:101A000031FB4FF46040009001208DF8040000206D
:101A10008DF806008DF8070002208DF80500694654
:101A20000B48FFF71FFB4FF4E060009001208DF89A
:101A3000040000208DF806008DF8070002208DF8C4
:101A4000050069460348FFF70DFB1CBD000402407A
:101A5000000C02400010024010B51148007D00F05B
:101A6000870040F038000E4908750E4800780128BC
:101A700014D10D480068642805DA4FF480710B48D2
:101A8000FFF75BFB0AE04FF480710848FFF757FB54
:101A900002200449087000200349086010BD0000BE
:101AA000F407002074020020780200200010024099
:101AB00010B5044614B1012C06D102E000F008F87C
:101AC00003E000F017F800E000BF00BF10BD000009
:101AD00010B5002408E00121054802F0A9FB44F6F6
:101AE000206002F007FB641C052CF4DB10BD000035
:101AF0003C00002010B5002408E00121054802F058
:101B0000A6FB44F6206002F0F5FA641C052CF4DB19
:101B100010BD00004200002010B5044614B1012C95
:101B200006D102E000F008F803E000F017F800E04A
:101B300000BF00BF10BD000010B5002408E0002168
:101B4000054802F075FB44F6206002F0D3FA641CED
:101B5000052CF4DB10BD00003C00002010B5002473
:101B600008E00021054802F072FB44F6206002F014
:101B7000C1FA641C052CF4DB10BD000042000020FB
:101B800010B52DED028BB0EE408AB5EEC08AF1EEB5
:101B900010FA3EDD3F48007840B94FF400413E481E
:101BA000FFF7CDFA01203B49087070E03948007812
:101BB000012812D1394800680A2805DC4FF4804119
:101BC0003548FFF7BAFA62E032480078401C3149E4
:101BD000087000203149086059E02E48007802283A
:101BE00055D12E480068022805DC4FF480412A4870
:101BF000FFF7A5FA4BE027480078401E25490870FA
:101C000000202649086026480078401C24490870B6
:101C10003DE02048007840B94FF480411E48FFF76E
:101C20008EFA01201B49087031E01A48007801281B
:101C300012D11A4800680A2805DC4FF40041164802
:101C4000FFF77BFA23E013480078401C1149087025
:101C50000020124908601AE00E480078022816D1C8
:101C60000E480068022805DC4FF400410A48FFF7DF
:101C700066FA0CE007480078401E0649087000200C
:101C80000649086006480078401C05490870BDEC0C
:101C9000028B10BD5C0200200004024060020020A4
:101CA0006402002010B507480078012808D10648D2
:101CB000007820B99FED050A01F0E8FC00E000BFC4
:101CC00010BD00005B0200205302002000409C4534
:101CD0007047000030B500228B071C0F0F2303FA5A
:101CE00004F20B4B8C1053F824309343084C8D10A6
:101CF00044F8253023468C1053F824308C07240FE9
:101D000000FA04F42343024C8D1044F8253030BD12
:101D1000083801400CB5002001900090344800685C
:101D200040F480303249086000BF3148006800F458
:101D3000003000900198401C0190009818B901985B
:101D4000B0F5A04FF1D12A48006800F4003010B17E
:101D50000120009001E0002000900098012846D169
:101D600023484030006840F08050214940310860ED
:101D70002048006840F440401E4908601C48083074
:101D800000681B49083108600846006840F40040BC
:101D900008600846006840F4A05008601648091F13
:101DA0000860081F006840F08070091F086000BFCD
:101DB0000F48006800F000700028F9D040F205706C
:101DC0000E4908600A480830006820F003000849FE
:101DD000083108600846006840F00200086000BF53
:101DE00003480830006800F00C000828F8D10CBD4A
:101DF000003802400070004008544007003C024098
:101E000010B5B548007880B9FFF710FCB34890F9D9
:101E10000000801C002807D1AF480078401CAE4964
:101E20000870FF20AD49087021E1AB480078012817
:101E30000ED1FEF71DFDAA4800780128F4D1A6486E
:101E40000078401CA44908700020A54908700EE1E4
:101E5000A1480078022823D1A24890ED021AB8EEDA
:101E6000C11AF0EE410A90ED001AB8EEC11AB0EEB8
:101E7000410AFFF70BFA9C4800780128D4D19B480F
:101E800000780128D0D194480078401C924908700D
:101E90000020954908709549087095490870E6E05A
:101EA0008D480078032818D18E48D0ED040AF8EE4A
:101EB000E00AB0EE600AFFF717F88E4800780128B4
:101EC000B2D185480078401C8349087000208949B8
:101ED0000870012088490870C9E07F48007804280C
:101EE00011D1FFF72EF98448007802289CD17A4856
:101EF0000078401C7849087000207F490870012054
:101F00007B490870B3E07448007805280ED1FFF7CC
:101F1000C9FE73480078012886D16F480078401CBC
:101F20006D49087000206E490870A0E06A4800788A
:101F3000062821D16B4890ED031AB8EEC11AF0EED5
:101F4000410A90ED011AB8EEC11AB0EE410AFFF74E
:101F50009DF9654800780128A1D1644800780128DE
:101F60009DD15D480078401C5B49087000205E49A7
:101F700008705E4908707AE057480078072818D141
:101F80005848D0ED050AF8EEE00AB0EE600AFEF718
:101F9000ABFF58480078012869D14F480078401CB1
:101FA0004D490870002053490870012053490870BA
:101FB0005DE04948007807280ED1FFF7C6F84F4882
:101FC0000078022853D144480078401C42490870E8
:101FD00000204A4908704AE03F48007808280ED19E
:101FE000FFF760FE3E480078012840D13A4800786B
:101FF000401C3949087000203949087037E03648DC
:102000000078092818D1DFED3E0A9FED3E0AFFF760
:102010003DF935480078012829D134480078012855
:1020200025D12D480078401C2B49087000202E49EE
:1020300008702E4908701AE0274800780A2816D13F
:10204000FFF7E0FA304890F90000801C78B92F487B
:10205000007D00F0870040F040002C490875FF200B
:102060002949087000202A4908702A4908701E482A
:10207000007802280BD01D480078022807D01D48A0
:102080000078022803D016480078022822D1FFF7F2
:10209000B9FA1D4890F90000801CD8B90E480078A4
:1020A0001D4908701948007D00F0F00017490875B7
:1020B000FF20154908700020074908700A49087078
:1020C0000A4908700B4908700549087010490870E2
:1020D0001049087010BD0000A40200204800002034
:1020E00053020020C00200205002002051020020B4
:1020F0006C020020520200206D02002074020020B9
:1021000000401C450080BB4449000020F40700202B
:1021100024000020250000207C02002010B5FC488F
:102120000078002833D1FB48007878B9FFF77EFAB1
:10213000F94890F90000801C18BBF5480078401C55
:10214000F3490870FF20F44908701AE0F14800785C
:10215000012816D1EE490978491CC8B2FEF722FCC5
:10216000EE48007801280CD10020ED494875E84878
:102170000078401CE64908700020E6490870E749ED
:102180000870E748007DF120E549087581E2E048E4
:10219000007801282DD1DF48007870B9FEF768FB80
:1021A000E04800780128F1D1D9480078401CD8498E
:1021B00008700020DB4908706BE2D64800780128DF
:1021C000E4D1D3490978491CC8B2FEF7EBFBD348E8
:1021D00000780128DAD10020D1494875CC48007830
:1021E000401CCB4908700020CA490870CB490870D0
:1021F0004FE2C7480078022844D1C648007818BB8F
:10220000C94890ED021AB8EEC11AF0EE410A90EDFD
:10221000001AB8EEC11AB0EE410AFFF737F8C3480A
:1022200000780128B2D1C24800780128AED1B84860
:102230000078401CB64908700020BE490870BB49B0
:102240000870BB49087024E2B248007801289DD18B
:10225000AF490978491CC8B2FEF7A4FBAF48007823
:10226000012893D10020AE494875A9480078401C48
:10227000A74908700020A7490870AE490870A7490F
:10228000087006E2A248007803283BD1A1480078F4
:10229000C0B9A548D0ED040AF8EEE00AB0EE600A35
:1022A000FEF722FEA4480078012885D198480078DE
:1022B000401C974908700120A049087000209E49E1
:1022C0000870E6E193480078012891D19049097897
:1022D000491CC8B2FEF766FB90480078012887D1F8
:1022E00000208F4948758A480078401C884908704A
:1022F0000020884908700120904908700020874913
:102300000870C6E182480078042834D181480078FA
:1023100088B9FEF716FF89480078022893D17C48D7
:102320000078401C7A49087001208249087000201A
:1023300082490870ADE1774800780128A1D174493D
:102340000978491CC8B2FEF72DFB744800780128B3
:1023500097D10020724948756D480078401C6C493F
:10236000087000206B490870012072490870002035
:102370006A4908708DE16648007805282DD16548C6
:10238000007870B9FFF78EFC66480078012898D174
:102390005F480078401C5E49087000206149087061
:1023A00077E15C48007801288BD159490978491CAC
:1023B000C8B2FEF7F7FA594800780128A1D10020E9
:1023C0005749487552480078401C51490870002010
:1023D00050490870514908705BE14D480078062863
:1023E00040D14C48007808BB4F4890ED031AB8EE36
:1023F000C11AF0EE410A90ED011AB8EEC11AB0EE22
:10240000410AFEF743FF49480078012892D1484825
:10241000007801288ED13E480078401C3C49087065
:102420000020424908704249087032E1394800787A
:1024300001289FD136490978491CC8B2FEF7B2FA83
:1024400036480078012895D1002035494875304834
:102450000078401C2E49087000202E4908702F4932
:10246000087016E12A48007807283AD129480078F0
:10247000C0B92D48D0ED050AF8EEE00AB0EE600ACA
:10248000FEF728FC2C480078012889D120480078E4
:10249000401C1F4908700120294908700020264966
:1024A0000870F6E01B480078012895D11849097892
:1024B000491CC8B2FEF776FA1848007801288BD17B
:1024C00000201749487512480078401C10490870D0
:1024D00001201B49087000200E4908700F49087040
:1024E000D7E00B480078072848D10A48007870B92F
:1024F000FEF72BFE12480078022896D10448007897
:10250000401C0349087000200D490870C1E019E023
:10251000A5020020A602002048000020A7020020FB
:10252000F407002053020020C002002050020020C7
:10253000510200206C020020520200206D02002097
:10254000740200206D48007801288AD16C4909780E
:10255000491CC8B2FEF726FA6A48007801280CD157
:1025600000206949487566480078401C6449087035
:10257000002062490870634908708AE0604800786A
:1025800008282FD15D48007880B99FED600A01F0DE
:102590007DF85F48007801287BD159480078401CBD
:1025A0005749087000205A49087072E05348007873
:1025B00001286ED152490978491CC8B2FEF7F2F9D8
:1025C00050480078012864D100204F4948754C4894
:1025D0000078401C4A490870002048490870494961
:1025E000087056E046480078092837D143480078FB
:1025F000C0B9DFED480A9FED480AFEF747FE47489D
:102600000078012845D146480078012841D13C484E
:102610000078401C3A490870002040490870404941
:10262000087036E035480078012832D134490978FD
:10263000491CC8B2FEF7B6F932480078012828D103
:102640000020314948752E480078401C2C490870FC
:1026500000202A4908702B4908701AE028480078A1
:102660000A2816D1FEF7CEFF2E4890F90000801CF4
:1026700078B92548007D00F0870040F040002249ED
:102680000875FF202749087000202749087027494E
:1026900008702248007802280BD0214800780228D0
:1026A00007D023480078022803D019480078022870
:1026B00022D1FEF7A7FF1B4890F90000801CD8B973
:1026C0000F4800781B4908700F48007D00F07F001C
:1026D0000D490875FF20134908700020084908704B
:1026E0000E4908700E4908701149087008490870B1
:1026F0000D4908700D49087010BD0000A6020020A9
:10270000A5020020A7020020F407002000409C45FD
:102710005302002000401C450080BB4450020020B2
:102720005102002049000020240000202500002044
:10273000520200207C02002010B500F015F910BDF7
:1027400030B515480068154AB0FBF2F1481EB0F1EB
:10275000807F01D301201BE0481E4FF0E022506132
:1027600050170F22002807DA13071D0E0C4B00F03C
:102770000F04241F1D5503E013071C0E094B1C54A6
:1027800000BF00204FF0E022906107201061002080
:1027900008B100BFFEE730BD00000020A0860100A8
:1027A00018ED00E000E400E010B51548006840F4C2
:1027B0007000134908601348006840F00100114997
:1027C000086000200F49083108600E4800680E4973
:1027D00008400C4908600D48091D0860081F006882
:1027E00020F48020091F0860002006490C31086091
:1027F000FFF790FA4FF0006001498039086010BD82
:1028000088ED00E000380240FFFFF6FE10300024A3
:1028100010B50121054800F04AF808B101F0B4FBF9
:102820000121024800F034F810BD000000140040FF
:102830007FB505460C4601212020FEF71BFF0295BF
:10284000A0B2ADF804000020ADF80600ADF80C0011
:1028500001A90E4800F046F8012211460B4800F08D
:1028600037F80121094800F016F837208DF80000EC
:1028700001208DF8010003208DF8020001208DF861
:1028800003006846FEF780FE7FBD00000014004094
:10289000CA430282704721B1028842F001020280DD
:1028A00004E002884FF6FE731A400280704730B58C
:1028B0000246002000230024158A05EA01039589B9
:1028C00005EA010413B10CB1012000E0002030BD85
:1028D0001AB183890B43838102E083898B4383810F
:1028E0007047000000220288184B98420ED0184B07
:1028F00098420BD0B0F1804F08D0164B984205D0CB
:10290000154B984202D0154B984204D14FF68F7365
:102910001A404B881A43124B984207D0114B9842E9
:1029200004D04FF6FF431A400B891A4302804B68CC
:10293000C3620B880385054B984202D0044B984232
:1029400001D18B7A03860123838270470000014006
:10295000000401400004004000080040000C00405A
:1029600000100040001400400448006820B10348F3
:102970000068401E014908607047000028000020E0
:1029800010B540F22441134800F066FD01280BD138
:10299000104800F075FE1048FEF704F9C0F164001D
:1029A000C4B200F01DF814E040F22661094800F0BE
:1029B00053FD01280DD140F22661064800F0CDFB01
:1029C000064805494039C860002103483030FEF709
:1029D00027F810BD004C0040406002403D00002040
:1029E00010B500210848FEF71BF800BF0648FEF7A7
:1029F000CFF80028FAD164210348FEF721F901211C
:102A00000148FEF70DF810BD4060024070B5044665
:102A10000D4600BF0748FEF7BBF80028FAD105486D
:102A2000001D056003480C30046001210148FDF7DA
:102A3000F7FF70BDB864024010B540F224414D4824
:102A400000F00AFD01287DD14A4800F019FE4A48ED
:102A5000FEF7A8F8C0F16400C4B200F0B7FD082C7E
:102A60006ED146480078EE286AD1002008E043493C
:102A7000095C434A12681144414A1160411CC8B2C2
:102A80000728F4DB3D48C0793D490968884254D1A4
:102A90003A4840783949897840EA012000EE100A26
:102AA000B8EEC00A374880ED070A3448C078334989
:102AB000097940EA012000EE100AB8EEC00A314858
:102AC00080ED080A90ED070ADFED2F0A20EE200ABC
:102AD0009FED2E1AC0EE010A9FED2D0AB2EE041AE8
:102AE00011EE200ADFED2B0A30EE200A80ED010AFC
:102AF00090ED080ADFED240A20EE200A9FED231A4C
:102B0000C0EE010A9FED240AB1EE041A11EE200A6C
:102B1000DFED200A30EE200A80ED020A90ED010A76
:102B2000BDEEC00A1D4880ED010A164890ED020A6C
:102B3000BDEEC00A194880ED020A00201049086065
:102B400016E0FFE740F226610A4800F085FC012804
:102B50000ED140F22661074800F0FFFA4FF03D50D9
:102B600005497C390860002103483030FDF758FFE3
:102B700010BD00000010014088640240D80200200F
:102B800030000020BC07002000404E45000080457A
:102B90000080BB450000704200803B45F4070020E8
:102BA00010B50446204601F079F810BD70B5044612
:102BB0000D4600BF0848FDF7EBFF0028FAD1064894
:102BC000001D05600448A038C0F8AC40012102484F
:102BD000FDF726FF70BD0000A060024010B52DED8E
:102BE000068B40F224418F4800F036FC01287DD14D
:102BF0008C4800F045FD8C48FDF7D4FFC0F57A7095
:102C0000C4B200F0F9FC0E2C71D188480078AA28D3
:102C1000FAD1002008E08549095C854A1268114410
:102C2000834A1160411CC8B20D28F4DB7F48407B09
:102C30007F49096888427DD17C4949787B4A9278EE
:102C400041EA022108B2FDF79CFB41EC1A0B9FED13
:102C5000790B53EC102BFDF725FB41EC190B9FED85
:102C6000770B53EC102BFDF7ABFA41EC180BFDF78B
:102C700099FB744908606D49C9786C4A127941EA38
:102C8000022108B2FDF77DFB41EC1A0B9FED690BA9
:102C900053EC102BFDF706FB41EC190B9FED6A0B73
:102CA00053EC102BFDF78CFA41EC180BFDF77AFB77
:102CB000644948605D4949795C4A927941EA022158
:102CC00008B2FDF75EFB41EC1A0B9FED5A0B53EC7B
:102CD000102BFDF7E7FA41EC190B9FED5D0B53EC60
:102CE000102BFDF76DFA41EC180B01E081E07FE05D
:102CF000FDF758FB534988604C49C9794B4A127A11
:102D000041EA022108B2FDF73CFB41EC1A0B9FEDB2
:102D1000490B53EC102BFDF7C5FA41EC180B9FED56
:102D20004C0B53EC102BFDF74BFA41EC190BFDF754
:102D300039FB00E059E04349C8603C49497A3B4AC5
:102D4000927A41EA022108B2FDF71BFB41EC1A0B13
:102D50009FED380B53EC102BFDF7A4FA41EC190B47
:102D60009FED3B0B53EC102BFDF72AFA41EC180BAF
:102D7000FDF718FB334908612C48C07A2B49097BC1
:102D800040EA012000EE100AB8EEC00A324880ED99
:102D9000060A90ED060ADFED310A20EE200A9FEDCB
:102DA000301AC0EE010A9FED2F0AB1EE041A11EE9F
:102DB000200A80ED000A90ED000ABDEEC00A2A4804
:102DC00080ED030A1F4890ED020ABDEEC00A10EE26
:102DD000100A00B2244908821A4890ED030ABDEE99
:102DE000C00A10EE100A00B24882002010490860A4
:102DF00014E040F226610B4800F02EFB01280DD1B3
:102E000040F22661074800F0A8F9184806498839B9
:102E1000C860002104481830FDF702FEBDEC068BA7
:102E200010BD0000004400408860024059030020AB
:102E30003400002000000000C0FFDF400000000060
:102E400000003040E00700200000000000409F40EC
:102E50000000000000806640BC07002000404E4596
:102E60000000804500803B45F407002000003D2025
:102E700010B50446204600F093FF10BD70B504461F
:102E80000D4600210848FDF7CBFD00BF0648FDF7C1
:102E90007FFE0028FAD104485838C56544660121F0
:102EA0000148FDF7BDFD70BD5860024070B59AB095
:102EB000002440F224417D4800F0CEFA01287DD163
:102EC0007A4800F0DDFB7A48FDF76CFEC0F1640043
:102ED000C6B200F0A9FB77480078AB286FD101207B
:102EE00007E074490B5C2146621CD4B201AA53541A
:102EF000401C70494978891E8142F2DC6D48407857
:102F0000401E6C49095C6B484078801E694A105C21
:102F100041EA0025214601A8FDF7FCFCA8420DD19D
:102F20006448807800F0070048B96348007D00F0ED
:102F3000F800614908750846007D087599E05D480C
:102F4000807800F00700012814D15C4908705C49C2
:102F5000087058488078C0105A4908705648007D5B
:102F600000F0F800544908750846007D40F0010063
:102F700008757EE04F48807800F0070002282CD1C9
:102F80004C48007B00044B49497B40EA01404949D9
:102F9000897B08434C4908604648807BC00345490B
:102FA000097C40EA01404349497C0843464988601E
:102FB0000120424908700220414901E05DE05BE0E8
:102FC00008703D48007D00F0F8003B490875084650
:102FD000007D40F0020008754BE03648807800F034
:102FE0000700032832D13348007B00043149497B74
:102FF00040EA01402F49897B0843334908602D4846
:10300000807BC0032B49097C40EA01402949497C67
:1030100008432D4988602748407D0121B1EB201FDE
:1030200002D1012029490870012024490870032099
:10303000234908702048007D00F0F8001E490875FB
:103040000846007D40F00300087512E019488078BA
:1030500000F0070004280CD01648807800F0070024
:10306000052806D01348807800F00700062800D015
:1030700000BF01201649087015E040F226610B4898
:1030800000F0EAF901280ED140F22661074800F06D
:1030900064F84FF0746006492839C860002104487C
:1030A0003030FDF7BDFC1AB070BD00000048004094
:1030B0002860024056070020F4070020240000206A
:1030C00025000020A3020020C0020020A70200204B
:1030D0002600002010B50446204600F0D3FE10BDA7
:1030E00010B540F22441144800F0B6F901280CD183
:1030F000114800F0C5FA1148FDF754FDC0F1640015
:103100000F49087000F0A6FA14E040F226610A4860
:1031100000F0A2F901280DD140F22661064800F026
:103120001CF8084805491C3908600021034878301C
:10313000FDF776FC10BD0000001401402864024039
:103140003800002000003D2001F40072B2F5007F3D
:1031500000D100BFCA430280704710B5002200238F
:1031600040F66A14A14200D100BF0A120124944023
:10317000A3B2DC43048010BD21B1828942F4005225
:10318000828104E082894DF6FF731A408281704784
:103190001AB1838A0B43838202E0838A8B43838242
:1031A0007047000000B58FB01948FDF745FC0021BD
:1031B0001748FDF735FC00BF1548FDF7E9FC00286E
:1031C000FAD16420049004200B9003200C9000207E
:1031D0000D9008904FF480600690801009900D4883
:1031E000019000200E90079005904FF480300A90D7
:1031F000C0020090002003900748029069460448EE
:10320000FDF7F2FC01210248FDF70AFC0FB000BDFA
:103210008864024004100140D802002000B58FB03D
:103220001A48FDF709FC00211848FDF7F9FB00BF1B
:103230001648FDF7ADFC0028FAD14FF47A700490DF
:1032400004200B9003200C9000200D9008904FF468
:1032500080600690801009900D48019000200E902B
:10326000079005904FF480300A90C0020090002033
:1032700003900848029069460448FDF7B5FC012117
:103280000248FDF7CDFB0FB000BD00008860024092
:10329000044400405903002000B58FB01948FDF7E1
:1032A000CBFB00211748FDF7BBFB00BF1548FDF71E
:1032B0006FFC0028FAD16420049004200B900320B6
:1032C0000C9000200D9008904FF4806006908010C4
:1032D00009900D48019000200E90079005904FF442
:1032E00080300A90C00200900020039007480290AE
:1032F00069460448FDF778FC01210248FDF790FB80
:103300000FB000BD2860024004480040560700206E
:1033100030B58FB004460D461448FDF78DFB00BF55
:103320001248FDF735FC0028FAD1049504200B90D3
:1033300003200C9000200D9008904FF480600690C0
:10334000002009900A48019000200E9007900590F7
:103350004FF400300A9080020090402003900294C5
:1033600069460248FDF740FC0FB030BDB86402402A
:103370000410014030B58FB004460D461448FDF7E7
:103380005BFB00BF1248FDF703FC0028FAD104954F
:1033900004200B9003200C9000200D9008904FF417
:1033A00080600690002009900A48019000200E904D
:1033B000079005904FF400300A9080020090402062
:1033C0000390029469460248FDF70EFC0FB030BD31
:1033D000A06002400444004030B58FB004460D4662
:1033E0001B48FDF729FB00211948FDF719FB00BF19
:1033F0001748FDF7CDFB0028FAD1049504200B9067
:1034000003200C9000200D9008904FF480600690EF
:10341000002009900F48019000200E900790059021
:103420004FF400300A9080020090402003900294F4
:1034300069460748FDF7D8FB012210210448FDF733
:10344000B5FB01210248FDF7EBFA0FB030BD0000DB
:10345000586002400448004070B502460024002332
:103460000025002040F66A16B14200D100BFC1F32A
:10347000421501F01F03012606FA03F3012D02D1C4
:103480009689334006E0022D02D1168A334001E0CE
:10349000968A33400C12012606FA04F4168834404A
:1034A00013B10CB1012000E0002070BDF0B503465F
:1034B000002400260025002040F66A17B94200D1FA
:1034C00000BF1846C1F3421401F01F06012707FA96
:1034D00006F5012C01D10C3004E0022C01D1103092
:1034E00000E014301AB107682F43076002E0076854
:1034F000AF430760F0BD00002DE9FF4705460E46CB
:103500000024A14600BFA046B08900B100BF2C8AAC
:1035100024F44054F08804432C82AC8941F20C60BE
:103520008443B08831890843718908430443AC81DE
:10353000AC8A24F44074B0890443AC826846FEF738
:10354000C9F82048854202D01F48854202D1DDF8E3
:103550000C9001E0DDF80890A88900F4004040B12B
:1035600009EBC90000EB091031684900B0FBF1F725
:1035700007E009EBC90000EB091031688900B0FBD6
:10358000F1F76420B7FBF0F004012009642101FB8E
:103590001078A88900F4004040B1322000EBC80048
:1035A000B0FBF1F000F00700044308E0322000EB2C
:1035B00008106421B0FBF1F000F00F0004432C81EF
:1035C000BDE8FF87001001400014014010B5002144
:1035D0000848FDF725FA00BF0648FDF7D9FA00288C
:1035E000FAD164210348FDF72BFB01210148FDF7C7
:1035F00017FA10BD8864024010B500210948FDF794
:103600000FFA00BF0748FDF7C3FA0028FAD14FF4BC
:103610007A710448FDF714FB01210248FDF700FA16
:1036200010BD00008860024010B500210848FDF779
:10363000F7F900BF0648FDF7ABFA0028FAD164217C
:103640000348FDF7FDFA01210148FDF7E9F910BD36
:103650002860024010B500210848FDF7E1F900BFDD
:103660000648FDF795FA0028FAD164210348FDF7D2
:10367000E7FA01210148FDF7D3F910BD28640240A3
:1036800001468888C0F308007047000010B52DED92
:10369000048BB0EE408A9FED4C0AF0EE408A9FED1D
:1036A0004A0AB0EE409A494890ED000AB5EEC00AC9
:1036B000F1EE10FA03D290ED030A80ED000A4348C0
:1036C00090ED000A30EE480AF0EE408A90ED000AD4
:1036D00080ED030A3E48007D00F0870040F02000A6
:1036E0003B490875394890ED000AB5EEC00AF1EE85
:1036F00010FA2EDD90ED000ADFED360AB4EEE00A96
:10370000F1EE10FA25D290ED000A30EE480AB5EE3F
:10371000C00AF1EE10FA06D290ED000AB1EE400AAE
:1037200030EE480A04E0294890ED000A30EE480ADD
:10373000F0EE408A9FED280AF4EEC08AF1EE10FA0E
:1037400007DB4FF480412548FDF7F7FC01202449B1
:103750000870244800782449097888420EDB4FF429
:1037600080411E48FDF7EBFC00201D4908701E49F2
:1037700008701C49087001201C490870134890ED1E
:10378000000ABCEEC00A10EE100A1949087008467B
:1037900000781849097888420FDB4FF480410F48C0
:1037A000FDF7CDFC00200E4908700F4908700D4947
:1037B000087001200D49087002E000200E490870D1
:1037C000BDEC048B10BD000000000000BC07002011
:1037D000F407002000401C460000C842000C0240D4
:1037E00058020020560200205402002053020020FC
:1037F0005702002055020020A102002000BFFEE772
:1038000010B52DED028BB0EE408A2048007818B933
:1038100001201E49087036E01C480078012817D1A5
:103820001B4800680A280ADAB5EEC08AF1EE10FAE1
:1038300029DD4FF480411748FDF77FFC23E0134852
:103840000078401C114908700020114908601AE0F6
:103850000E480078022816D10D4800680A280ADAB6
:10386000B5EEC08AF1EE10FA0DDD4FF48041094843
:10387000FDF765FC07E005480078401E0349087025
:10388000002003490860BDEC028B10BD65020020DA
:1038900068020020000C024010B52DED028BF0EE06
:1038A000408A9FED790AB0EE408A784890ED010A8F
:1038B000B5EEC00AF1EE10FA1FD2754800780A285A
:1038C0000ADA73480078401C714908706F4890ED1F
:1038D000040A80ED010A13E04FF400416D48FDF742
:1038E0002EFC4FF480416B48FDF729FC002068490D
:1038F000087002206849087002E0002064490870DE
:10390000624890ED010A30EE680AB0EE408AB5EEEA
:10391000C08AF1EE10FA02D2B1EE480A01E0B0EE30
:10392000480ADFED5E0AB4EEE00AF1EE10FA2ADD95
:10393000564890ED010A30EE680AB0EE408AB5EEC6
:10394000C08AF1EE10FA0DD25548007D00F08700D4
:1039500040F00800524908754FF480414D48FDF78A
:10396000ECFB8EE0B5EEC08AF1EE10FA0ADD4C48B1
:10397000007D00F087004A4908754FF40041454832
:10398000FDF7DBFB7DE0B5EEC08AF1EE10FA02D266
:10399000B1EE480A01E0B0EE480ADFED400AB4EEAD
:1039A000E00AF1EE10FA6CD2B5EEC08AF1EE10FA30
:1039B00031D29FED3C0AB4EEC08AF1EE10FA08D283
:1039C00039480078022804DAB0EE480AFEF7D8F841
:1039D00057E09FED340AB4EEC08AF1EE10FA0AD235
:1039E00031480078022806DBDFED270AB0EE480AEE
:1039F000FDF7B2FB45E04FF480412648FDF79FFB01
:103A000000202949087029490870294908600120C7
:103A10002149087035E0B5EEC08AF1EE10FA30DBCE
:103A20009FED240AB4EEC08AF1EE10FA08DD1E48BC
:103A30000078022804DAB0EE480AFEF7A1F820E088
:103A40009FED1C0AB4EEC08AF1EE10FA0ADD1648AA
:103A50000078022806DBDFED0C0AB0EE480AFDF71D
:103A60007BFB0EE04FF400410A48FDF768FB0020A5
:103A70000D4908700D4908700D490860012006497C
:103A80000870BDEC028B10BD00000000BC070020D8
:103A90009F02002000040240500200200000FA446F
:103AA000F4070020000048C36402002065020020E3
:103AB000680200200000484310B52DED028BF0EEA7
:103AC000408A9FED630AB0EE408A624890ED020A98
:103AD000B5EEC00AF1EE10FA1FD25F4800780A284E
:103AE0000ADA5D480078401C5B490870594890ED3F
:103AF000050A80ED020A13E04FF400515748FDF724
:103B00001EFB4FF480515548FDF719FB0020524928
:103B1000087002205249087002E000204E490870E7
:103B20004C4890ED020A30EE680AB0EE408A90ED03
:103B3000020A80ED050AB5EEC08AF1EE10FA02D253
:103B4000B1EE480A01E0B0EE480ADFED460AB4EEF5
:103B5000E00AF1EE10FA25DDB5EEC08AF1EE10FABA
:103B60000DDD4148007D00F0870040F010003E4927
:103B700008754FF480513948FDF7DFFA64E0B5EE7F
:103B8000C08AF1EE10FA5FD23748007D00F087005E
:103B900040F01800344908754FF400512F48FDF7E4
:103BA000CCFA51E0B5EEC08AF1EE10FA02D2B1EED5
:103BB000480A01E0B0EE480ADFED2A0AB4EEE00A56
:103BC000F1EE10FA40D2B5EEC08AF1EE10FA1BD237
:103BD0009FED260AB4EEC08AF1EE10FA06D2F0EE9E
:103BE000480A9FED1B0AFDF7B7FA2DE04FF400518C
:103BF0001A48FDF7A4FA00201D4908701D49086005
:103C00000120174908701FE0B5EEC08AF1EE10FAE6
:103C10001ADD9FED190AB4EEC08AF1EE10FA06DD46
:103C2000F0EE480A9FED0A0AFDF796FA0CE04FF411
:103C300080510A48FDF783FA00200D4908700D49AC
:103C40000860012006490870BDEC028B10BD000021
:103C500000000000BC070020A00200200004024079
:103C6000510200200000FA44F4070020000048C37D
:103C700065020020680200200000484302E008C8F6
:103C8000121F08C1002AFAD170477047002001E0D6
:103C900001C1121F002AFBD17047000010B588B087
:103CA000044601210846FDF7D5FC01211020FDF74F
:103CB000F1FC01218805FDF7CDFC072209213548DB
:103CC000FDF718FA07220A213248FDF713FA0220FD
:103CD0008DF80C0003208DF80D0000208DF80E00EB
:103CE00001208DF80F004002029002A92948FDF73B
:103CF000B9F94FF48060029002A92648FDF7B2F9A5
:103D000004940020ADF81400ADF81600ADF81800CA
:103D1000ADF81C000C20ADF81A0004A91E48FFF7EE
:103D2000EBFBFFF73FFA0A210020FFF7F1FA01222F
:103D300040211948FFF72CFA012280211648FFF78D
:103D400027FA012210211548FCF730FF25208DF8B5
:103D5000040001208DF805008DF806008DF807009D
:103D600001A8FDF711FC012240F224410A48FFF7A7
:103D70009DFB012240F226610748FFF797FB0121D6
:103D80000548FFF7F9F940210348FFF7DDF908B0CE
:103D900010BD00000000024000100140B864024065
:103DA00010B588B0044601210846FDF753FC0121F7
:103DB0004804FDF75FFC01214805FDF74BFC072295
:103DC00003212D48FDF796F902208DF80C00032001
:103DD0008DF80D0000208DF80E0001208DF80F00E9
:103DE0000820029002A92448FDF73CF90494002021
:103DF000ADF81400ADF81600ADF81800ADF81C00D1
:103E00000420ADF81A0004A91C48FFF775FBFFF762
:103E100005FA0A210020FFF7ADFA012240211748D8
:103E2000FFF7B6F9012210211548FCF7BFFE262046
:103E30008DF8040001208DF8050002208DF80600A1
:103E400001208DF8070001A8FDF79EFB012240F23A
:103E500024410A48FFF72AFB012240F22661074865
:103E6000FFF724FB01210548FFF786F940210348AD
:103E7000FFF76AF908B010BD00000240004400409E
:103E8000A060024010B588B0044601210220FDF771
:103E9000E1FB01218804FDF7EDFB01214805FDF759
:103EA000D9FB07220A213548FDF724F907220B2107
:103EB0003248FDF71FF902208DF80C0003208DF821
:103EC0000D0000208DF80E0001208DF80F008002FB
:103ED000029002A92948FDF7C5F84FF4006002904E
:103EE00002A92648FDF7BEF804940020ADF814009E
:103EF000ADF81600ADF81800ADF81C000C20ADF8B8
:103F00001A0004A91E48FFF7F7FAFFF7C5F90A21BE
:103F10000020FFF761FA012240211948FFF738F924
:103F2000012280211648FFF733F90122102115489C
:103F3000FCF73CFE27208DF8040001208DF80500D9
:103F40008DF806008DF8070001A8FDF71DFB012282
:103F500040F224410A48FFF7A9FA012240F2266103
:103F60000748FFF7A3FA01210548FFF705F94021AB
:103F70000348FFF7E9F808B010BD00000004024054
:103F800000480040586002404B480088401C4A49A5
:103F9000088008464088401C488008468088401CAD
:103FA00088800846C088401CC88008460089401C9C
:103FB000088108464089401C488108468089401C89
:103FC0008881084680880A2804DB084680880A38E9
:103FD000888070E03848C088142817DB3648C088CD
:103FE00014383549C88035480078012804D1344850
:103FF0000078401C324908703248007801285AD1B4
:1040000031480078401C3049087054E02A48008943
:10401000322805DB284800893238274908814AE0E0
:1040200025484089C82846DB23484089C8382249AA
:10403000488126480078012803D0244800780228C7
:1040400004D123480068401C2149086021480078B9
:10405000012803D01F480078022804D11E480068B8
:10406000401C1D4908601D480078012804D11C48E7
:104070000068401C1A4908601A480078012804D1D9
:1040800019480068401C18490860184890F9000059
:10409000002805DB15480078401C40B21349087021
:1040A000134890F90000002805DB11480078401CF7
:1040B00040B20F49087070470C08002059020020D8
:1040C0005402002058020020560200205C0200200A
:1040D0006002002065020020680200206D020020BE
:1040E00070020020740200207802002048000020A6
:1040F0004900002001B504490098086000BF02484B
:1041000000680028FBD108BD28000020FEF718FB3E
:10411000FCF78EFB07E001210846FCF793FD012127
:104120000020FCF78FFD374800780028F3D0364890
:1041300000780028EFD03548007D40F080003349FA
:1041400008755EE03248C088142847DB31480078A3
:10415000012803D102202F4908703FE02D48007844
:1041600070B32C480078022838D12B4800780128F9
:1041700027D12A480078072821D2DFE800F0200460
:104180000E18191A1D002648D0ED000AF8EEE00AB4
:10419000B0EE600AFDF738F912E02148D0ED020ACE
:1041A000F8EEE00AB0EE600AFDF78CF908E007E0EF
:1041B00000BFFDF7C1F803E0FDF7F2F800E000BF33
:1041C0000CE015480078022802D1FDF7A7FF05E0B2
:1041D00011480078032801D1FDF712FE0C484089F0
:1041E000C8280EDB0F480078012804D1FDF70CFB2E
:1041F00000200C4908700C48007810B901200B49C8
:1042000008609FE75B0200205A020020F4070020AC
:104210000C0800202400002025000020A30200201C
:10422000C0020020260000207C020020B082404214
:1042300070B504460D46AA20E07025712079E1781A
:104240000844607106212046FEF7E0FB70BD70B5A2
:1042500004460D46AA20E07025712079E1780844D3
:10426000607106212046FEF7A1FC70BD8C4200085B
:1042700000000020A802000066050008D4430008E2
:10428000A8020020780900008C3C000811847A0301
:104290000A680901020304060708090CA9100115A0
:1042A0003A013B2A020613FFFF2808C1814001C0E2
:1042B000804104690C2908E918A91C091A3009165B
:1042C00038093660092E70092F6000FF00C0C10157
:1042D000C30302C2C60607C705C5C404CC0C0DCD76
:1042E0000FCFCE0E0ACACB0BC90908C8D81819D9E6
:1042F0001BDBDA1A1EDEDF1FDD1D1CDC14D4D51516
:10430000D71716D6D21213D311D1D010F03031F105
:1043100033F3F23236F6F737F53534F43CFCFD3D35
:10432000FF3F3EFEFA3A3BFB39F9F83828E8E92925
:10433000EB2B2AEAEE2E2FEF2DEDEC2CE42425E5D5
:1043400027E7E62622E2E323E12120E0A06061A145
:1043500063A3A26266A6A767A56564A46CACAD6DF5
:10436000AF6F6EAEAA6A6BAB69A9A86878B8B97965
:10437000BB7B7ABABE7E7FBF7DBDBC7CB47475B595
:1043800077B7B67672B2B373B17170B05090915185
:104390009353529296565797559594549C5C5D9DB5
:1043A0005F9F9E5E5A9A9B5B9959589888484989A5
:1043B0004B8B8A4A4E8E8F4F8D4D4C8C4484854555
:1043C0008747468682424383418180025D400200E6
:0443D000FF000000EA
:040000050800018965
:00000001FF
