:020000040800F2
:10000000E80D00209D010008891700089B110008D9
:100010008517000889080008193B00080000000047
:10002000000000000000000000000000911E000819
:10003000F10C0008000000006D180008DD28000821
:10004000B7010008B7010008B7010008B7010008B0
:10005000B7010008B7010008B7010008B7010008A0
:10006000B7010008B7010008B7010008B701000890
:10007000B7010008B7010008B7010008B701000880
:10008000B7010008B7010008B7010008B701000870
:10009000B7010008B7010008B7010008B701000860
:1000A000B7010008B7010008B7010008B701000850
:1000B000B7010008B7010008B7010008B701000840
:1000C000B7010008B7010008B7010008B701000830
:1000D000B7010008A12D0008612F00086D3200084B
:1000E0004D0F0008B7010008B7010008B70100086C
:1000F000B7010008B7010008B7010008B701000800
:10010000B7010008B7010008B7010008B7010008EF
:10011000012C0008B7010008B7010008B529000844
:10012000B7010008B7010008B7010008B7010008CF
:10013000B7010008B7010008B7010008B7010008BF
:10014000B7010008B7010008B7010008B7010008AF
:10015000B7010008B7010008B7010008B53500086D
:10016000B7010008B7010008B7010008B70100088F
:10017000B7010008B7010008B7010008B70100087F
:10018000B7010008B7010008DFF80CD000F05AF9F9
:1001900000480047F9440008E80D00200648804761
:1001A00006480047FEE7FEE7FEE7FEE7FEE7FEE75C
:1001B000FEE7FEE7FEE7FEE74D290008890100089B
:1001C000D2B201E000F8012B491EFBD27047002299
:1001D000F6E710B513460A4604461946FFF7F0FF46
:1001E000204610BD2DE9F04D81EA030404F0004BD8
:1001F00021F0004514464FF0000A23F0004150EA78
:10020000050220D054EA01021DD0C5F30A57024668
:10021000C5F31303C1F31300C1F30A5640F480156C
:1002200043F48013A7EB0608101BD64608F2FD38EE
:1002300073EB050002D308F1010801E092185B415D
:10024000B8F1000F03DA00200146BDE8F08D002070
:100250004FF48011064684460EE0171B73EB05072A
:1002600005D3121B63EB050306434CEA010C490856
:100270004FEA300092185B4150EA0107EDD152EA93
:10028000030012D082EA040083EA0501084305D086
:10029000101BAB4106D20122002306E000224FF0E2
:1002A000004302E06FF0010253101AEB06004CEB22
:1002B000085110EB0A0041EB0B01BDE8F04D00F0D6
:1002C00064B80EB5C10F80EAE0700844CA07002187
:1002D00040F233438DE80E000A460B4600F064F806
:1002E00003B000BD01F0004330B421F0004150EAFA
:1002F000010206D00A0DA2F56072C1F31301002AB3
:1003000002DC30BC00207047440F44EAC104C10045
:10031000E01830BC00EBC250AFF300800029A8BF4A
:100320007047401C490008BF20F00100704710B41E
:10033000B0FA80FC00FA0CF050EA010404BF10BCD3
:10034000704749B1CCF1200421FA04F411FA0CF100
:1003500018BF012121430843A3EB0C01CB1D4FEA39
:1003600000614FEA102042BF002010BC704700EB34
:10037000C35010440029A4BF10BC7047401C490062
:1003800008BF20F0010010BC704710B5141E73F1B7
:10039000000408DA401C41F1000192185B411A4345
:1003A00001D120F0010010BD2DE9F04D92469B4691
:1003B00011B1B1FA81F202E0B0FA80F22032904637
:1003C00000F052F804460F4640EA0A0041EA0B01E9
:1003D00053465A46084313D0114653EA010019D038
:1003E000C8F14002504600F04EF805460E46504611
:1003F0005946424600F038F8084305D0012004E091
:1004000020463946BDE8F08D0020054346EAE076F7
:100410002C4337430A986305E40AA0EB0800002246
:10042000FD0A44EA47540A3002D500200146E9E7B4
:10043000010510196941DDE9084500196941BDE868
:10044000F04DA2E7064C074D06E0E06840F00103DE
:1004500094E8070098471034AC42F6D3FFF798FEB3
:10046000C8460008E8460008202A04DB203A00FAC3
:1004700002F1002070479140C2F1200320FA03F3FB
:10048000194390407047202A04DB203A21FA02F0F9
:100490000021704721FA02F3D040C2F120029140BE
:1004A00008431946704770B58C1810F8015B15F0B9
:1004B000070301D110F8013B2A1106D110F8012BD6
:1004C00003E010F8016B01F8016B5B1EF9D12B07FB
:1004D00005D40023521E0DD401F8013BFAE710F8B1
:1004E000013BCB1A921C03E013F8015B01F8015B9E
:1004F000521EF9D5A142D8D3002070BD21B1826827
:1005000042F00102826003E0826822F00102826010
:10051000704700000021084A1168084A1140D0E9DC
:1005200000231A4383681A43C3681A431143044AD9
:10053000C2F804137047000004230140E030FCFFC0
:100540000020014021B1826842F48072826003E0A1
:10055000826822F480728260704721B1826842F41E
:100560000072826003E0826822F400728260704749
:1005700000B58DB00121022001F09EF90121042077
:1005800001F09AF90121080201F0B6F901200B905F
:1005900003208DF8300000208DF833000BA92A4885
:1005A00000F084FD10200B9003208DF83000002017
:1005B0008DF833000BA9254800F078FD01210802D1
:1005C00001F0AAF900214FF4807001F0A5F9002094
:1005D00007904FF470600A904FF4804009908000BB
:1005E000089007A8FFF796FF0020019001208DF8E2
:1005F00008008DF8090000200390059002208DF876
:10060000180001A9124800F025F801211048FFF751
:1006100075FF0723012208210D4800F045F8072344
:1006200002220E210A4800F03FF800F099F908482C
:1006300000F096F801210648FFF78FFF01210448DA
:10064000FFF780FF0DB000BD00040240000802402B
:100650000020014030B50246002000235068104CB5
:1006600020400D790C6844EA0524204350609068CE
:100670000C4C2040D1E903542C438D682C434D7918
:1006800044EA450420439060D06A20F470000C7D59
:10069000641EE4B2234340EA0350D06230BD000040
:1006A000FFFEFFFCFDF7FFC0F0B504460D4600203D
:1006B0000021092D11DDE068A5F10A0606EB4607C9
:1006C000072606FA07F18843A5F10A0606EB460657
:1006D00003FA06F10843E0600CE0206905EB4507EA
:1006E000072606FA07F1884305EB450603FA06F1EB
:1006F00008432061072A0FDA606B561E06EB860757
:100700001F2606FA07F18843561E06EB860605FAF1
:1007100006F10843606322E00D2A0FDA206BD61F32
:1007200006EB86071F2606FA07F18843D61F06EB5D
:10073000860605FA06F10843206310E0E06AA2F19C
:100740000D0606EB86071F2606FA07F18843A2F17D
:100750000D0606EB860605FA06F10843E062F0BDD9
:10076000816841F080418160704700001CB5012123
:10077000082001F0A1F84FF48060009001208DF86E
:10078000040000208DF806008DF8070002208DF887
:1007900005006946014800F089FC1CBD000C0240C0
:1007A00010B500F0D3FD00F0B9FDFFF7E1FEFFF753
:1007B000DDFF01F05FFA00F0DDFB4FF4E13002F005
:1007C000B1FB4FF4E13002F0C5FC4FF4E13001F031
:1007D00027F94FF4E13002F043FA532140F2F310CD
:1007E00002F0F8F810BD000010B51C480078012890
:1007F00033D11B48007801282FD11A4890ED000A08
:10080000DFED190AB4EEE00AF1EE10FA06D8174847
:10081000007818B99FED140A03F0A2F81448007884
:10082000D8B914480078C0B90E4890ED010ADFED40
:10083000120AB4EEE00AF1EE10FA08D390ED010AC4
:10084000DFED0E0AB4EEE00AF1EE10FA05DDDFEDA1
:100850000C0A9FED0C0A00F03DFD10BD6F02002058
:100860006E0200202809002000409C455B02002009
:1008700058020020590200200080A2440080D44485
:1008800000401C450080BB4400BFFEE770B5024637
:100890000C46FF25FF2309E012F8010B80EA030153
:1008A0000648405C80EA05030548455C201EA4F12B
:1008B0000106F4B2F0D145EA032070BD54000020D7
:1008C0005401002010B51648007D00F0870040F06C
:1008D0003800134908751348B0F9000000280ADBF6
:1008E0001048B0F90000322805DC4FF400410E48F2
:1008F00000F047FC13E00B48B0F9000032280ADB97
:100900000848B0F900003C2805DC4FF400410648D7
:1009100000F039FC03E06FF001000249088010BDCF
:100920005C090020800200200004024010B5084845
:10093000B0F90000401C10B90020054908800448A7
:10094000B0F90000002801DBFFF7BCFF10BD00007C
:100950008002002001494875704700005C090020B2
:1009600000B58FB00121880500F0A6FF174800F000
:100970003FF800BF154800F0E7F80028FAD10090D2
:100980001348019013480290002003900220049025
:10099000002005904FF4806006904000079008907A
:1009A000C010099040020A9000200B9001200C908A
:1009B00000200D900E906946044800F0F1F80121E6
:1009C000024800F009F80FB000BD000010640240BA
:1009D0004C2001403A00002021B1026842F001029F
:1009E000026003E0026822F001020260704700002A
:1009F000016821F001010160002101604160816016
:100A0000C1600161212141614A49884204D13D21EF
:100A1000484A103A91608CE046491831884205D125
:100A20004FF47461434A103A916082E04149303199
:100A3000884205D14FF474113E4A103A916078E033
:100A40003C494831884205D14FF07461394A103A27
:100A500091606EE037496031884204D13649354AA9
:100A6000103AD16065E033497831884204D1334986
:100A7000304A103AD1605CE02E499031884204D16E
:100A80002F492C4A103AD16053E02A49A8318842B4
:100A900005D14FF03D51274A103AD16049E029492C
:100AA000884204D13D21274A083A116041E0254996
:100AB0001831884205D14FF47461224A083A116016
:100AC00037E020493031884205D14FF474111D4A76
:100AD000083A11602DE01B494831884205D14FF09A
:100AE0007461184A083A116023E01649603188425F
:100AF00004D11149134A121F11601AE011497831CB
:100B0000884204D10D490F4A121F116011E00D49AE
:100B10009031884204D10A490A4A121F116008E044
:100B20000849A831884204D14FF03D51054A121FAF
:100B300011607047106002403D000020400F00200F
:100B400000003D2010640240014600200A6802F0C7
:100B500001020AB1012000E0002070470146486808
:100B600080B2704710B501F080034BB122B14369E8
:100B700043F08003436103E0436923F08003436152
:100B800080290BD02AB1036801F01E0423430360BF
:100B900004E0036801F01E04A343036010BD0000DD
:100BA00010B500220268134B1A40CC680B6823432F
:100BB0004C6923438C692343CC6923430C6A234348
:100BC0004C6A23438C6A23434C6B23438C6B234333
:100BD0001A430260426922F00702D1E90B34234331
:100BE0001A4342610B6943604B6883608B68C36042
:100BF00010BD00003F801CF04160704770B52DEDC6
:100C0000048B05460C469FED360AB0EE408A9FEDF8
:100C1000340AB0EE409A9FED320AF0EE408A7DBB76
:100C2000012C2ED12F4890ED010AD0ED040A30EEB0
:100C3000600AB0EE409A90ED020AD0ED050A30EE5F
:100C4000600AF0EE408AB5EEC09AF1EE10FA0AD1D1
:100C5000F5EEC08AF1EE10FA05D1002022490870A5
:100C600001F098F802E001201F4908701D4890ED3E
:100C7000010A80ED040A90ED020A80ED050A2BE0DE
:100C800004E024BB002001F0B9F825E0012D23D1B8
:100C9000012C1DD1134890ED000AD0ED030A30EE6F
:100CA000600AB0EE408AB5EEC08AF1EE10FA06D1C5
:100CB00000200E490870012001F06CF802E00120CC
:100CC0000A490870074890ED000A80ED030A03E026
:100CD00014B9012001F092F8BDEC048B70BD000046
:100CE00000000000280900206E0200206F02002092
:100CF0007047000010B52DED028BF0EE408A9FED9D
:100D0000780AB0EE408A774890ED000AB5EEC00A46
:100D1000F1EE10FA03D290ED030A80ED000A71485B
:100D200090ED000A30EE680AB0EE408A90ED000ABD
:100D300080ED030AB5EEC08AF1EE10FA02D2B1EEF0
:100D4000480A01E0B0EE480ADFED670AB4EEE00AB7
:100D5000F1EE10FA18DDB5EEC08AF1EE10FA12DBF2
:100D60004FF40051614800F00CFA6148007838B93E
:100D70005C4890ED000ABDEEC00A5E4880ED000AB6
:100D800001205B490870A8E0B5EEC08AF1EE10FAC8
:100D900002D2B1EE480A01E0B0EE480ADFED520A95
:100DA000B4EEE00AF1EE10FAEDD29FED530AB4EE84
:100DB000C08AF1EE10FA04DDB0EE480A02F0AEFE91
:100DC0000EE04FF40051494800F0DDF90020484999
:100DD00008704A4908704A4908600120494908706A
:100DE000494890ED010AB5EEC00AF1EE10FA04D2BE
:100DF00090ED010AB1EE400A02E0434890ED010A8D
:100E0000F3EE090AB4EEE00AF1EE10FA16DC3E4801
:100E100090ED020AB5EEC00AF1EE10FA04D290EDA0
:100E2000020AB1EE400A02E0374890ED020AF3EE02
:100E3000090AB4EEE00AF1EE10FA0EDD4FF40051AB
:100E40002A4800F0A0F90020294908702B490870B1
:100E50002B49086001202B4908702C4890ED000AAE
:100E600038EE400AB5EEC00AF1EE10FA06D290ED67
:100E7000000A38EE400AB1EE400A04E0234890ED43
:100E8000000A38EE400ADFED220AB4EEE00AF1EE85
:100E900010FA1CD21F480078401C1E4908700846F2
:100EA0000078642816DD4FF40051104800F06BF90B
:100EB00000200F4908701749087010490870104940
:100EC00008601449087001200E49087002E00020F3
:100ED000104908700D4880ED008ABDEC028B10BDF2
:100EE000000000002809002000007A4400040240AD
:100EF0006D020020600200200000484378020020BC
:100F00007C0200205A0200204C090020B802002078
:100F100000004842BC02002010B52DED028BB0EE5F
:100F2000408A08480078012808D10748007820B98D
:100F3000B0EE480AFFF7DEFE00E000BFBDEC028B1A
:100F400010BD00006F0200205A02002010B54FF4BF
:100F5000006000F055F818B14FF4006000F04AF856
:100F60004FF4805000F04CF818B14FF4805000F06E
:100F700041F810BD00B585B00121082000F09CFCAF
:100F80004FF4C050039000208DF8100002208DF81F
:100F9000110003A9164800F089F80121880300F028
:100FA000ABFC0B21032000F075FF0C21032000F0A7
:100FB00071FF4FF4C050009000208DF8040008200D
:100FC0008DF8050001208DF80600684600F024F831
:100FD00028208DF8080000208DF809008DF80A00FF
:100FE00001208DF80B0002A800F0D0FB05B000BD79
:100FF000000C02400149086070470000143C0140A9
:1010000001460020034A12680A400AB1012000E0AC
:1010100000207047143C0140002123498279002AB6
:101020003AD00A46126803689A430B461A600A1DB2
:10103000126803689A430B1D1A60027911440A680A
:1010400003681A430A60184A0832126803689A4310
:10105000154B08331A601A1D126803689A43124B25
:101060000C331A604279102A0ED11A1F12680368D5
:101070001A430D4B08331A601A1D126803681A438D
:10108000094B0C331A600DE00749427911440A6894
:1010900003681A430A6005E0027911440A6803688C
:1010A0009A430A6070470000003C0140F0B50A46D0
:1010B00000210023002400BF3DE0012505FA01F3D3
:1010C000156805EA03049C4234D105684F000326E5
:1010D000BE40B543056015794E00B54006683543FE
:1010E00005601579012D02D01579022D16D185687C
:1010F0004F000326BE40B543856055794E00B5408C
:10110000866835438560456801268E40B543456055
:10111000456896798E40B6B235434560C5684F0044
:101120000326BE40B543C560D5794E00B540C668BC
:101130003543C560491C1029BFD3F0BDF0B500236D
:1011400000244D07ED0E02FA05F3CE1000F1200544
:1011500055F826504E07F70E0F26BE40B543CF1068
:1011600000F1200646F82750CE1000F1200555F872
:10117000265045EA0304CE1000F1200545F826402C
:10118000F0BD418370470183704710B5FFF7CEFB78
:1011900010BD10B500F0EAFD10BD00BFFEE7000075
:1011A00010B52DED028BF0EE408AB0EE608A444817
:1011B000007840B900204349087043490860012085
:1011C0003F49087078E03E480078012838D13F4810
:1011D00000680A282BDAF5EEC08AF1EE10FA05DD78
:1011E0004FF400613A48FFF7CCFF65E0F5EEC08AA6
:1011F000F1EE10FA05D24FF480613548FFF7C1FFD8
:101200005AE0B5EEC08AF1EE10FA05DD4FF48071B8
:101210002F48FFF7B6FF4FE0B5EEC08AF1EE10FAA7
:101220004AD24FF400712A48FFF7ABFF44E024484C
:101230000078401C224908700020244908603BE0E7
:101240001F480078022837D1204800680A282BDA86
:10125000F5EEC08AF1EE10FA05DD4FF400611C488E
:10126000FFF791FF28E0F5EEC08AF1EE10FA05D203
:101270004FF480611648FFF786FF1DE0B5EEC08A87
:10128000F1EE10FA05DD4FF480711148FFF77BFF96
:1012900012E0B5EEC08AF1EE10FA0DD24FF40071F3
:1012A0000B48FFF770FF07E005480078401E04492F
:1012B0000870002005490860BDEC028B10BD0000DD
:1012C0007802002070020020740200207C020020BE
:1012D0000010024010B52DED028BF0EE408AB0EE0A
:1012E000608A0B48007801280ED10A48007820B99E
:1012F000B0EE680A02F05EFC06E00748007818B914
:10130000B0EE480A02F03CFDBDEC028B10BD0000BF
:101310006E02002058020020590200201CB5012155
:10132000102000F0C9FA3820009000208DF8040049
:1013300001208DF8070002208DF80500694602485B
:10134000FFF7B4FE1CBD0000001002401CB50121D7
:10135000084600F0B1FA0820009001208DF8040042
:1013600000208DF806008DF8070002208DF805009A
:1013700069460248FFF79AFE1CBD000000000240CB
:1013800010B5FFF7D3FA0C48B0F90000801C88B9FB
:101390000A48007D00F0870040F0480007490875C2
:1013A0000020074908700749087007490870401E67
:1013B0000649088010BD0000800200205C09002062
:1013C000BD0200202400002025000020880200200B
:1013D00010B52DED028BB0EE408A1C480078012834
:1013E00031D11B480068801C68BB1A48007820B9BE
:1013F000B0EE480AFFF77EFC25E016480078012889
:1014000009D1002014490870144908701449087063
:101410001049087017E00F480078022813D100F037
:1014200027FA01200F4908700F48007D00F07F0067
:101430000D490875002008490870084908700849D6
:10144000087004490870BDEC028B10BD6F020020CB
:101450004C0000205A020020BD0200202400002081
:1014600025000020BE0200205C09002010B500F01D
:101470007DFC0C48B0F90000801C88B90A48007D4A
:1014800000F0870040F04800074908750020074930
:1014900008700749087007490870401E064908800F
:1014A00010BD0000880200205C090020BD02002061
:1014B00024000020250000208002002010B500F04C
:1014C000D7F90B480068801C88B90A48007D00F0F5
:1014D000870040F070000749087500200649087031
:1014E0000649087006490870401E0649086010BD8C
:1014F000500000205C09002024000020250000206E
:10150000BD0200204C00002010B500F0C3F90B48CC
:101510000068801C88B90A48007D00F0870040F010
:1015200068000749087500200649087006490870D8
:1015300006490870401E0649086010BD4C00002096
:101540005C0900202400002025000020BD020020AE
:101550005000002010B52DED028BB0EE408A2348DC
:10156000007801283ED122480068801C002839D12B
:101570002048007820B9B0EE480A02F0F1F931E0D5
:101580001C480078012811D100201B4908701B4914
:1015900008701B490870174908701A48007D00F050
:1015A000870040F04800174908751BE01148007893
:1015B000022817D100F05CF913480068801C88B934
:1015C0000120124908700F48007D00F07F000D498E
:1015D0000875002008490870084908700849087013
:1015E00004490870BDEC028B10BD00006F020020A2
:1015F0004C0000205B020020BD02002024000020DF
:10160000250000205C09002050000020BE020020C0
:1016100010B52DED028BB0EE408A244800780128E9
:1016200040D123480068801C00283BD12148007825
:1016300020B9B0EE480A02F0BDFA33E01D48007848
:10164000012813D100201C4908701C490870194951
:1016500008701B4908701B4908701B48007D00F08A
:10166000870040F04800184908751BE011480078D1
:10167000022817D100F0FCF8012014490870144822
:101680000068801C70B94FF0FF30094908601049AC
:101690000860002008490870084908700849087067
:1016A00004490870BDEC028B10BD00006E020020E2
:1016B0004C00002058020020BD0200202400002021
:1016C00025000020780200205C090020BE020020D6
:1016D0005000002010B52DED028BB0EE408A21485D
:1016E000007801283BD120480068801C002836D1B2
:1016F0001E48007820B9B0EE480A02F041FB2EE007
:101700001A480078012811D1002019490870194998
:10171000087019490870154908701848007D00F0D4
:10172000870040F048001549087518E00F48007818
:10173000022814D100F09CF811480068801C70B990
:101740004FF0FF30084908600D4908600020084943
:101750000870084908700849087004490870BDEC11
:10176000028B10BD6E0200204C00002059020020A8
:10177000BD02002024000020250000205C0900207C
:101780005000002000BFFEE77047000070B5002148
:1017900000230F22C4781CB3174C246804F4E064BF
:1017A000C4F5E064C4F30721C1F10404E3B20A41C3
:1017B00044789C40E1B28478144021430C07210E08
:1017C0000E4C05786155047804F01F050124AC40E7
:1017D00005786D11AD0005F1E025C5F8004109E07F
:1017E000047804F01F050124AC40054D06787611FD
:1017F00045F8264070BD00000CED00E000E400E07C
:1018000080E100E010B51648007D00F0870040F050
:101810004000134908751348B0F9000000280ADB9E
:101820001048B0F90000322805DC4FF480410E4822
:10183000FFF7A7FC13E00B48B0F9000032280ADBE1
:101840000848B0F900003C2805DC4FF48041064808
:10185000FFF799FC03E06FF001000249088010BD1A
:101860005C0900208802002000040240704700004C
:1018700010B507480068401C10B9002004490860F2
:1018800003480068002801DB00F0A8F910BD000043
:101890005000002010B507480068401C10B9002017
:1018A0000449086003480068002801DB00F0BCF927
:1018B00010BD00004C00002029B1064A1268024306
:1018C000044B1A6004E0034A12688243014B1A6019
:1018D000704700003038024029B1064A12680243BE
:1018E000044B1A6004E0034A12688243014B1A60F9
:1018F000704700004038024029B1064A126802438E
:10190000044B1A6004E0034A12688243014B1A60D8
:10191000704700004438024029B1064A1268024369
:10192000044B1A6004E0034A12688243014B1A60B8
:101930007047000024380240F0B500210022002446
:10194000022500260223324F3F6807F00C0121B127
:10195000042905D0082937D105E02E4F076036E06D
:101960002D4F076033E02A4F3F1F3F68C7F3805673
:10197000274F3F1F3F6807F03F036EB1264FB7FB6D
:10198000F3F7DFF88CC0ACF1040CDCF800C0CCF34A
:10199000881C07FB0CF40CE01E4FB7FBF3F7DFF8D5
:1019A00070C0ACF1040CDCF800C0CCF3881C07FB61
:1019B0000CF4174F3F1F3F68C7F301477F1C7D00A2
:1019C000B4FBF5F7076002E0124F076000BF00BFED
:1019D0000F4F3F6807F0F0010909104F7A5C076864
:1019E000D74047600A4F3F6807F4E051890A0B4F20
:1019F0007A5C4768D7408760054F3F6807F46041CD
:101A0000490B064F7A5C4768D740C760F0BD0000BD
:101A1000083802400024F40000127A00140000206C
:101A20001CB50446204601F0A9FD01210846FFF738
:101A300043FF0620009001208DF8040000208DF85F
:101A4000060003208DF8050001208DF80700694687
:101A50000448FFF72BFB0020034908600349C1F845
:101A600088021CBD00000240840240420000404247
:101A700070B59AB00024002500260020199064213A
:101A80006846FEF7A4FBAA20504908700846027871
:101A90002146641C4E484254641C4C48027921463D
:101AA000641C4B484254494842792146641C4848CA
:101AB0004254464882792146641C45484254434872
:101AC000027A2146641C424842544048427A2146E8
:101AD000641C3F4842543D48827A2046611CCCB287
:101AE0003B490A543948027B2046611CCCB2384934
:101AF0000A543648427B2046611CCCB234490A5411
:101B00003248827B2046611CCCB231490A542F48AE
:101B1000027C2046611CCCB22D490A542B48427CE1
:101B20002046611CCCB22A490A542848827C2046AF
:101B3000611CCCB226490A542448C27C2046611C50
:101B4000CCB223490A542148427D2046611CCCB2C4
:101B50001F490A541D48027D2046611CCCB21C4915
:101B60000A54022508E01A48425D3046711CCEB284
:101B70000DF80020681CC5B2A542F4DB314668466A
:101B8000FEF784FE19909DF864202046611CCCB2BB
:101B90000F490A549DF865202046611CCCB20C49BF
:101BA0000A54EE222046611CCCB209490A54084668
:101BB00044700120074908600749C1F8880221469E
:101BC000034801F009FB1AB070BD00005C09002059
:101BD00084090020840240420000404210B51048B1
:101BE0000068002809DB0E480068192805DC4FF45E
:101BF00000710C48FFF7C5FA11E009480068192880
:101C000009DB07480068322805DC4FF400710548FD
:101C1000FFF7B9FA03E06FF001000149086010BD59
:101C200050000020000C024010B510480068002849
:101C300009DB0E480068192805DC4FF480710C4858
:101C4000FFF79FFA11E009480068192809DB0748E7
:101C50000068322805DC4FF480710548FFF793FADD
:101C600003E06FF001000149086010BD4C00002046
:101C7000000C02401CB501211A20FFF71DFE4FF495
:101C80007040009001208DF8040000208DF80600BF
:101C900001208DF8070002208DF8050069463048C4
:101CA000FFF704FA4FF4E060009001208DF8040083
:101CB00000208DF8060001208DF8070002208DF825
:101CC000050069462748FFF7F1F94FF4706000906E
:101CD00001208DF8040000208DF8060001208DF809
:101CE000070002208DF8050069461F48FFF7DEF95E
:101CF0004FF480711C48FFF746FA4FF400711A4800
:101D0000FFF741FA4FF480611748FFF73CFA4FF4B0
:101D100000611548FFF737FA4FF480511048FFF77C
:101D200032FA4FF400510E48FFF72DFA4FF40041FC
:101D30000B48FFF728FA4FF480410948FFF723FAD0
:101D40004FF480710748FFF71EFA4FF40071054801
:101D5000FFF719FA4FF480610248FFF714FA1CBD2F
:101D600000040240000C02400010024010B5084878
:101D7000B0F90000401C10B9002005490880044853
:101D8000B0F90000002801DBFFF73CFD10BD0000AA
:101D90008802002010B5044614B1012C06D102E0DF
:101DA00000F008F803E000F017F800E000BF00BF03
:101DB00010BD000010B5002408E00121054802F024
:101DC00065FC44F6206002F08BFB641C052CF4DB00
:101DD00010BD00003E00002010B5002408E00121E5
:101DE000054802F062FC44F6206002F079FB641CB6
:101DF000052CF4DB10BD00004400002010B50446A3
:101E000014B1012C06D102E000F008F803E000F064
:101E100017F800E000BF00BF10BD000010B500249F
:101E200008E00021054802F031FC44F6206002F091
:101E300057FB641C052CF4DB10BD00003E000020A5
:101E400010B5002408E00021054802F02EFC44F6FD
:101E5000206002F045FB641C052CF4DB10BD000083
:101E60004400002010B507480078012808D1064832
:101E7000007820B99FED050A01F072FD00E000BF77
:101E800010BD00006F0200205B02002000409C4556
:101E90007047000030B500228B071C0F0F2303FA98
:101EA00004F20B4B8C1053F824309343084C8D10E4
:101EB00044F8253023468C1053F824308C07240F27
:101EC00000FA04F42343024C8D1044F8253030BD51
:101ED000083801400CB5002001900090344800689B
:101EE00040F480303249086000BF3148006800F497
:101EF000003000900198401C0190009818B901989A
:101F0000B0F5A04FF1D12A48006800F4003010B1BC
:101F10000120009001E0002000900098012846D1A7
:101F200023484030006840F080502149403108602B
:101F30002048006840F440401E4908601C480830B2
:101F400000681B49083108600846006840F40040FA
:101F500008600846006840F4A05008601648091F51
:101F60000860081F006840F08070091F086000BF0B
:101F70000F48006800F000700028F9D040F20570AA
:101F80000E4908600A480830006820F0030008493C
:101F9000083108600846006840F00200086000BF91
:101FA00003480830006800F00C000828F8D10CBD88
:101FB000003802400070004008544007003C0240D6
:101FC00010B5B248007880B9FFF764FCB0480068EB
:101FD000801C002808D1AD480078401CAB4908702F
:101FE0004FF0FF30AA4908601CE1A848007801289A
:101FF0000ED1FEF7F9FBA74800780128F4D1A348D9
:102000000078401CA14908700020A249087009E12D
:102010009E480078022821D19F4890ED021AB8EE20
:10202000C11AF0EE410A90ED001AB8EEC11AB0EEF6
:10203000410AFFF74FF9994800780128D4D1984810
:1020400000780128D0D191480078401C8F49087051
:1020500000209249087092490870E3E08B480078AC
:10206000032818D18C48D0ED040AF8EEE00AB0EE4F
:10207000600AFEF751FF8B4800780128B4D18348ED
:102080000078401C814908700020864908700120B2
:1020900085490880C6E07D48007804280ED1FFF706
:1020A00074F88148008802289ED178480078401C46
:1020B0007649087000207C490880B3E073480078B6
:1020C00005280ED1FFF7CEFE7248007801288BD18B
:1020D0006E480078401C6D49087000206D490870FA
:1020E000A0E06A480078062821D16B4890ED031AD9
:1020F000B8EEC11AF0EE410A90ED011AB8EEC11A1D
:10210000B0EE410AFFF7E6F8644800780128A4D150
:10211000634800780128A0D15C480078401C5B49E6
:10212000087000205D4908705D4908707AE05748E2
:102130000078072818D15848D0ED050AF8EEE00AD3
:10214000B0EE600AFEF7E8FE56480078012869D133
:102150004E480078401C4D490870002051490870D5
:102160000120524908805DE04848007807280ED1D8
:10217000FFF70FF84D480088022853D143480078F4
:10218000401C424908700020484908804AE03F4806
:10219000007808280ED1FFF765FE3E480078012838
:1021A00040D13A480078401C38490870002039492D
:1021B000087037E035480078092818D1DFED3C0A6F
:1021C0009FED3C0AFFF786F834480078012829D1B2
:1021D00033480078012825D12C480078401C2B4931
:1021E000087000202D4908702D4908701AE0274812
:1021F00000780A2816D1FFF73BFB2F480068801CA7
:1022000080B92E48007D00F0870040F040002B4947
:1022100008754FF0FF3028490860002028490870F1
:10222000284908701D48007802280BD01C48007807
:10223000022807D01B480078022803D015480078F0
:10224000022822D1FFF714FB1B480068801CE0B96C
:102250000E4800781C4908701848007D00F0F00016
:10226000164908754FF0FF301349086000200749F0
:1022700008700A4908700A4908700A490870054937
:1022800008700F4908700F49087010BDBF02002088
:102290004C0000205B020020E402002058020020D5
:1022A000590200205A0200208002002088020020EB
:1022B00000401C450080BB44500000205C09002009
:1022C00024000020250000209002002010B5F948CD
:1022D0000078002833D1F848007878B9FFF7DAFAA7
:1022E000F6480068801C20BBF2480078401CF14989
:1022F00008704FF0FF30F14908601AE0EE480078AE
:10230000012816D1EB490978491CC8B2FEF722FB17
:10231000EB48007801280CD10020EA494875E548CF
:102320000078401CE34908700020E3490870E44944
:102330000870E448007DF120E24908757CE2DD4840
:102340000078012833D1DC480078A0B90120DE49AB
:102350000870FEF749FA0020DB490870DB48007876
:102360000128EBD1D3480078401CD24908700020E6
:10237000D649087060E2D04800780128DED1CD4906
:102380000978491CC8B2FEF7E5FACD480078012863
:10239000D4D10020CB494875C6480078401CC549B7
:1023A00008700020C4490870C549087044E2C1485B
:1023B0000078022840D1C048007808BBC44890ED9E
:1023C000021AB8EEC11AF0EE410A90ED001AB8EE0A
:1023D000C11AB0EE410AFEF77DFFBE480078012821
:1023E000ACD1BD4800780128A8D1B2480078401C83
:1023F000B04908700020B7490870B74908701BE25F
:10240000AD480078012899D1AA490978491CC8B279
:10241000FEF7A0FAAA48007801288FD10020A94928
:102420004875A4480078401CA24908700020A249C1
:102430000870A3490870FFE19E48007803283BD14B
:102440009D480078C0B9A248D0ED040AF8EEE00A31
:10245000B0EE600AFEF760FDA0480078012889D13F
:1024600094480078401C9349087001209C490880DA
:1024700000209A490870DFE18F480078012895D143
:102480008C490978491CC8B2FEF764FA8C48007878
:1024900001288BD100208B49487586480078401C64
:1024A0008449087000208449087001208C49088004
:1024B000002083490870BFE17E48007804282DD1B0
:1024C0007D48007870B9FEF760FE854800880228D4
:1024D00095D178480078401C7649087000208049E2
:1024E0000880A9E174480078012888D171490978E9
:1024F000491CC8B2FEF72EFA7148007801289AD11B
:102500000020704948756B480078401C6949087084
:102510000020694908706A4908708DE165480078B3
:1025200005282DD16448007870B9FFF79BFC6748F7
:10253000007801289FD15F480078401C5D490870F1
:1025400000206249087077E15B480078012892D149
:1025500058490978491CC8B2FEF7FCF95848007878
:10256000012888D100205749487552480078401CFE
:1025700050490870002050490870514908705BE1CB
:102580004C480078062840D14B48007808BB50489A
:1025900090ED031AB8EEC11AF0EE410A90ED011A5F
:1025A000B8EEC11AB0EE410AFEF794FE4948007831
:1025B000012896D148480078012892D13D480078FA
:1025C000401C3C490870002042490870424908708C
:1025D00032E13948007801289FD136490978491CF1
:1025E000C8B2FEF7B7F936480078012895D1002027
:1025F000344948752F480078401C2E490870002047
:102600002D4908702E49087016E12A4800780728DD
:102610003AD129480078C0B92D48D0ED050AF8EE26
:10262000E00AB0EE600AFEF765FB2C48007801284E
:1026300089D120480078401C1E4908700120294992
:102640000880002025490870F6E01B480078012822
:1026500095D118490978491CC8B2FEF77BF918488A
:10266000007801288BD10020164948751148007860
:10267000401C1049087001201A49088000200E49AA
:1026800008700F490870D7E00A480078072848D139
:102690000948007840BBFEF77CFD124800880228FC
:1026A00096D104480078401C0249087000200D496A
:1026B0000880C1E0C0020020C10200204C000020C0
:1026C000C20200205C090020C30200205B0200203F
:1026D000E402002058020020590200205A02002083
:1026E0008002002088020020FFE76D480078012862
:1026F0008AD16C490978491CC8B2FEF72BF96A489F
:10270000007801280CD10020684948756548007898
:10271000401C6449087000206149087062490870D3
:102720008AE06048007808282FD15D48007880B999
:102730009FED5F0A01F014F95E48007801287BD113
:1027400058480078401C57490870002059490870C3
:1027500072E05348007801286ED152490978491C2B
:10276000C8B2FEF7F7F850480078012864D100207D
:102770004E4948754B480078401C4A490870002073
:10278000474908704849087056E0464800780928CB
:1027900037D143480078C0B9DFED470A9FED470ABB
:1027A000FEF798FD46480078012845D14548007855
:1027B000012841D13B480078401C3A49087000206C
:1027C0003F4908703F49087036E0354800780128D5
:1027D00032D134490978491CC8B2FEF7BBF83248F7
:1027E0000078012828D10020304948752D4800780C
:1027F000401C2C4908700020294908702A4908709B
:102800001AE0284800780A2816D1FFF731F82E4838
:102810000068801C80B92548007D00F0870040F0EA
:102820004000224908754FF0FF302749086000201A
:1028300026490870264908702148007802280BD0E4
:1028400020480078022807D022480078022803D0C8
:1028500018480078022822D1FFF70AF81A480068C1
:10286000801CE0B90F4800781B4908700F48007DB4
:1028700000F07F000D4908754FF0FF3012490860E5
:102880000020084908700E4908700E490870114967
:102890000870084908700D4908700D49087010BD8E
:1028A000C1020020C0020020C20200205C090020FA
:1028B00000409C455B02002000401C450080BB445A
:1028C000580200205902002050000020240000205F
:1028D000250000205A0200209002002010B500F0D0
:1028E00015F910BD30B515480068154AB0FBF2F176
:1028F000481EB0F1807F01D301201BE0481E4FF03D
:10290000E022506150170F22002807DA13071D0E2E
:102910000C4B00F00F04241F1D5503E013071C0E81
:10292000094B1C5400BF00204FF0E02290610720AB
:102930001061002008B100BFFEE730BD000000209C
:10294000A086010018ED00E000E400E010B5154895
:10295000006840F47000134908601348006840F0B4
:1029600001001149086000200F49083108600E4835
:1029700000680E4908400C4908600D48091D0860B0
:10298000081F006820F48020091F08600020064905
:102990000C310860FFF79EFA4FF000600149803962
:1029A000086010BD88ED00E000380240FFFFF6FE31
:1029B0001030002410B50121054800F04AF808B194
:1029C00001F0DEFC0121024800F034F810BD0000E7
:1029D000001400407FB505460C4601212020FEF77B
:1029E0007BFF0295A0B2ADF804000020ADF8060010
:1029F000ADF80C0001A90E4800F046F8012211467E
:102A00000B4800F037F80021094800F016F837208D
:102A10008DF8000001208DF8010003208DF80200E0
:102A200001208DF803006846FEF7B0FE7FBD000070
:102A300000140040CA430282704721B1028842F06C
:102A40000102028004E002884FF6FE731A40028001
:102A5000704730B50246002000230024158A05EA9D
:102A60000103958905EA010413B10CB1012000E0CE
:102A7000002030BD1AB183890B43838102E0838932
:102A80008B4383817047000000220288184B9842D4
:102A90000ED0184B98420BD0B0F1804F08D0164B97
:102AA000984205D0154B984202D0154B984204D15C
:102AB0004FF68F731A404B881A43124B984207D037
:102AC000114B984204D04FF6FF431A400B891A432A
:102AD00002804B68C3620B880385054B984202D085
:102AE000044B984201D18B7A03860123838270477D
:102AF00000000140000401400004004000080040C4
:102B0000000C004000100040001400400448006821
:102B100020B103480068401E01490860704700006A
:102B20002800002000B58FB01948FDF761FF002193
:102B30001748FDF751FF00BF1548FEF705F80028BC
:102B4000FAD16420049004200B9003200C90002004
:102B50000D9008904FF480600690801009900D4809
:102B6000019000200E90079005904FF480300A905D
:102B7000C002009000200390074802906946044874
:102B8000FEF70EF801210248FDF726FF0FB000BD49
:102B900040600240044C00404A08002030B58FB02D
:102BA00004460D461448FDF723FF00BF1248FDF709
:102BB000CBFF0028FAD1049504200B9003200C9041
:102BC00000200D9008904FF480600690002009903E
:102BD0000A48019000200E90079005904FF40030B5
:102BE0000A908002009040200390029469460248B7
:102BF000FDF7D6FF0FB030BD70600240044C0040BE
:102C000010B540F22441134800F0A6FD01280BD175
:102C1000104800F09FFE1048FDF7A0FFC0F16400CF
:102C2000C4B200F023F814E040F22661094800F035
:102C300093FD01280DD140F22661064800F0F7FC13
:102C4000064805494039C860002103483030FDF787
:102C5000C3FE10BD004C0040406002403D0000201B
:102C600010B50446204601F005FB10BD10B500214B
:102C70000848FDF7B1FE00BF0648FDF765FF0028D4
:102C8000FAD164210348FDF7B7FF01210148FDF7A0
:102C9000A3FE10BD4060024000B58FB01948FDF79B
:102CA000A7FE00211748FDF797FE00BF1548FDF766
:102CB0004BFF0028FAD16420049004200B900320DD
:102CC0000C9000200D9008904FF4806006908010CA
:102CD00009900D48019000200E90079005904FF448
:102CE00080300A90C00200900020039007480290B4
:102CF00069460448FDF754FF01210248FDF76CFEC8
:102D00000FB000BD8864024004100140040300209D
:102D100070B504460D4600BF0748FDF715FF0028B3
:102D2000FAD10548001D056003480C3004600121FC
:102D30000148FDF751FE70BDB864024030B58FB058
:102D400004460D461448FDF753FE00BF1248FDF738
:102D5000FBFE0028FAD1049504200B9003200C9070
:102D600000200D9008904FF480600690002009909C
:102D70000A48019000200E90079005904FF4003013
:102D80000A90800200904020039002946946024815
:102D9000FDF706FF0FB030BDB864024004100140DB
:102DA00010B540F22441524800F0D6FC01287CD1F5
:102DB0004F4800F0CFFD4F48FDF7D0FEC0F1640052
:102DC000C4B24D48046000F081FD062C77D14B4819
:102DD0000078EE2873D1002008E04849095C484A91
:102DE00012781144464A1170411CC8B20528F4DB20
:102DF000424840794249097888425DD1414840695A
:102E000080F008003F4948613C4840783B49897858
:102E100040EA012000EE100AB8EEC00A3A4880ED00
:102E2000070A3648C0783549097940EA012000EEA2
:102E3000100AB8EEC00A344880ED080A90ED070A7F
:102E4000DFED320A20EE200A9FED311AC0EE010AB2
:102E50009FED300AB2EE041A11EE200ADFED2E0AC1
:102E600030EE200A80ED010A90ED080ADFED270A16
:102E700020EE200A9FED261AC0EE010A9FED270AD8
:102E8000B1EE041A11EE200ADFED230A30EE200A1B
:102E900080ED020A90ED010ABDEEC00A204880EDE7
:102EA000010A194890ED020A01E009E007E0BDEED1
:102EB000C00A1B4880ED020A00201149087015E085
:102EC00040F226610A4800F047FC01280ED140F28A
:102ED0002661074800F0ABFB4FF03D5005497C39B7
:102EE0000860002103483030FDF776FD10BD00007A
:102EF00000100140886402403000002004030020DC
:102F00002D000020000002402809002000404E450E
:102F1000000080450080BB450000704200803B45BA
:102F20005C09002010B50446204601F01BF810BDD6
:102F300070B504460D4600BF0848FDF705FE0028A1
:102F4000FAD10648001D05600448A038C0F8AC401E
:102F500001210248FDF740FD70BD0000A060024065
:102F600010B52DED048B40F224416D4800F0F4FBC8
:102F700001287DD16A4800F0EDFC6A48FDF7EEFDBE
:102F8000C0F57A70C4B200F0B7FC0E2C71D166485F
:102F90000078AA28FAD1002008E06349095C634A56
:102FA00012781144614A1170411CC8B20D28F4DB3B
:102FB0005D48407B5D49097888427CD15A49C9788F
:102FC0000906594A927841EA0241574A527841EA41
:102FD0000220C11700EB1161091200EE101AB8EEC1
:102FE000C00A534981ED000A4F4909794E4A527986
:102FF00041EA0220FDF765F941EC190B9FED4D0BFD
:1030000053EC102BFDF7EEF841EC180BFDF76AF9C5
:103010004749486044498979434AD27941EA0220C4
:10302000FDF74FF941EC190B9FED420B53EC102BC0
:10303000FDF7D8F841EC180BFDF754F93C498860CE
:103040003949097A384A527A41EA0220FDF739F9BA
:1030500041EC190B9FED370B53EC102BFDF7C2F829
:1030600041EC180BFDF73EF93149C8602E4801E0EC
:103070003EE03CE0807A2C49C97A40EA012000EE2B
:10308000100AB8EEC00A2D4880ED060A90ED060A37
:10309000DFED2B0A20EE200A9FED2A1AC0EE010A6E
:1030A0009FED290AB1EE041A11EE200A80ED000A04
:1030B00090ED000A00E017E0BDEEC00A234880ED65
:1030C000030A1B4890ED010ABDEEC00A10EE100A7B
:1030D00000B21E490882164890ED010ABDEEC00AF2
:1030E00010EE100A00B2488200201049087014E067
:1030F00040F226610A4800F02FFB01280DD140F272
:103100002661074800F093FA114806498839C860DB
:10311000002104481830FDF75FFCBDEC048B10BDA6
:1031200000440040886002408503002038000020F1
:103130004C09002000000000000059402809002030
:1031400000404E450000804500803B455C09002062
:1031500000003D2010B50446204600F085FF10BD5C
:1031600000B58FB01948FDF743FC00211748FDF763
:1031700033FC00BF1548FDF7E7FC0028FAD16420B6
:10318000049004200B9003200C9000200D900890D8
:103190004FF480600690801009900D480190002047
:1031A0000E90079005904FF480300A90C002009076
:1031B000002003900748029069460448FDF7F0FCA0
:1031C00001210248FDF708FC0FB000BD2860024055
:1031D000044800408207002070B504460D460021D7
:1031E0000848FDF7F9FB00BF0648FDF7ADFC0028D5
:1031F000FAD104485838C565446601210148FDF7F5
:10320000EBFB70BD5860024030B58FB004460D46F0
:103210001448FDF7EDFB00BF1248FDF795FC0028B0
:10322000FAD1049504200B9003200C9000200D90FF
:1032300008904FF480600690002009900A480190A1
:1032400000200E90079005904FF400300A90800205
:10325000009040200390029469460248FDF7A0FCCC
:103260000FB030BD586002400448004070B59AB0BD
:10327000002440F22441B44800F06EFA012878D1CD
:10328000B14800F067FBB148FDF768FCC0F164008D
:10329000C6B200F079F9AE480078AB2832D10320ED
:1032A00007E0AB490B5C2146621CD4B201AA53541F
:1032B000401CA7494978891E8142F2DCA448407825
:1032C000801EA349095CA2484078401EA04A105CB9
:1032D00041EA0025214601A8FDF7D8FAA842DDD130
:1032E0009B48807800F0070001280CD19948007DA8
:1032F00000F0F800974908750846007D0875012020
:103300009549087001E19248807800F00700022892
:1033100075D192480068801C002862D18C48807862
:10332000C0108F49087008460078012803D008466D
:10333000007802281ED101208A4908708A49087045
:103340008348807B00048249497B40EA0120804910
:10335000097B0843854948607D48407C00047C49DE
:10336000097C40EA01207A49C97B08437F49C8604B
:1033700037E0CBE07A480078032803D0784800781B
:10338000062811D17248007D00047149C97C40EAC9
:1033900001206F49897C08437449486101207149C3
:1033A0000870714908701CE06D480078092805D143
:1033B00001206C4908706C49087012E06848007878
:1033C0000A2805D10120674908706749087008E09C
:1033D0006348007828B95F48007D00F087005D49A8
:1033E00008755B48407D00F00700012808D15D4961
:1033F00008705D4908700720594908700EE01CE00C
:103400005348407D00F00700022807D101205549AC
:103410000870554908700820514908704D48007DD2
:1034200000F0F8004B4908750846007D40F00200A6
:10343000087501204849087067E04548807800F029
:103440000700032832D14248807B00044049497B71
:1034500040EA01203E49097B0843444908603C4852
:10346000407CC0033A49097C40EA01203849C97BC5
:1034700008433E4988603648407D0121B1EB201F5A
:1034800002D101203A490870012036490870022013
:10349000354908702F48007D00F0F8002D49087567
:1034A0000846007D40F0030008752EE0284880782B
:1034B00000F00700042828D12548807B0004244917
:1034C000497B40EA01202249097B084327490860DB
:1034D0001F48407CC0031E49097C40EA01201C496A
:1034E000C97B08432149886001201E4908700320D8
:1034F0001D4908701748007D00F0F800154908754F
:103500000846007D40F0040008751BE040F226618B
:103510000D4800F021F9012814D140F226610A4833
:1035200000F085F84FF07460084928398860002160
:1035300006483030FDF750FA00200E4908600E4969
:10354000C1F888021AB070BD0048004028600240EF
:10355000820700205C090020260000204C0000208B
:10356000BD0200202400002025000020E4020020ED
:10357000C2020020840240420000404210B50446CE
:10358000204600F0F3FD10BD10B500210848FDF7FE
:1035900023FA00BF0648FDF7D7FA0028FAD16421C4
:1035A0000348FDF729FB01210148FDF715FA10BD7D
:1035B0002860024010B540F22441144800F0CCF8D5
:1035C00001280CD1114800F0C5F91148FDF7C6FAE1
:1035D000C0F164000F49087000F0A6F914E040F251
:1035E00026610A4800F0B8F801280DD140F22661A2
:1035F000064800F01CF8084805491C3908600021FD
:1036000003487830FDF7E8F910BD000000140140D0
:10361000286402403900002000003D2001F40072BF
:10362000B2F5007F00D100BFCA430280704710B5D9
:103630000022002340F66A14A14200D100BF0A1202
:1036400001249440A3B2DC43048010BD21B18289DF
:1036500042F40052828104E082894DF6FF731A40E1
:10366000828170471AB1838A0B43838202E0838A86
:103670008B4383827047000000B58FB01A48FDF776
:10368000B7F900211848FDF7A7F900BF1648FDF764
:103690005BFA0028FAD14FF47A70049004200B9062
:1036A00003200C9000200D9008904FF4806006904D
:1036B000801009900D48019000200E900790059011
:1036C0004FF480300A90C002009000200390084818
:1036D000029069460448FDF763FA01210248FDF7AC
:1036E0007BF90FB000BD0000886002400444004038
:1036F0008503002030B58FB004460D461448FDF711
:1037000077F900BF1248FDF71FFA0028FAD1049597
:1037100004200B9003200C9000200D9008904FF493
:1037200080600690002009900A48019000200E90C9
:10373000079005904FF400300A90800200904020DE
:103740000390029469460248FDF72AFA0FB030BD93
:10375000A06002400444004070B5024600240023EB
:103760000025002040F66A16B14200D100BFC1F327
:10377000421501F01F03012606FA03F3012D02D1C1
:103780009689334006E0022D02D1168A334001E0CB
:10379000968A33400C12012606FA04F41688344047
:1037A00013B10CB1012000E0002070BDF0B503465C
:1037B000002400260025002040F66A17B94200D1F7
:1037C00000BF1846C1F3421401F01F06012707FA93
:1037D00006F5012C01D10C3004E0022C01D110308F
:1037E00000E014301AB107682F43076002E0076851
:1037F000AF430760F0BD00002DE9FF4705460E46C8
:103800000024A14600BFA046B08900B100BF2C8AA9
:1038100024F44054F08804432C82AC8941F20C60BB
:103820008443B08831890843718908430443AC81DB
:10383000AC8A24F44074B0890443AC826846FEF735
:103840007BF82048854202D01F48854202D1DDF82E
:103850000C9001E0DDF80890A88900F4004040B128
:1038600009EBC90000EB091031684900B0FBF1F722
:1038700007E009EBC90000EB091031688900B0FBD3
:10388000F1F76420B7FBF0F004012009642101FB8B
:103890001078A88900F4004040B1322000EBC80045
:1038A000B0FBF1F000F00700044308E0322000EB29
:1038B00008106421B0FBF1F000F00F0004432C81EC
:1038C000BDE8FF87001001400014014010B5002141
:1038D0000848FDF781F800BF0648FDF735F90028D4
:1038E000FAD164210348FDF787F901210148FDF76A
:1038F00073F810BD8864024010B500210948FDF737
:103900006BF800BF0748FDF71FF90028FAD14FF404
:103910007A710448FDF770F901210248FDF75CF85F
:1039200010BD00008860024010B500210848FDF776
:1039300053F800BF0648FDF707F90028FAD16421C3
:103940000348FDF759F901210148FDF745F810BD7D
:103950002864024001468888C0F3080070470000D0
:1039600010B52DED028BF0EE408A9FED5A0AB0EEB5
:10397000408A594890ED000AB5EEC00AF1EE10FAFF
:1039800019D2564800780A280ADA54480078401CB0
:1039900052490870504890ED030A80ED000A0AE091
:1039A0004FF480514E48FDF7EEFB00204B49087064
:1039B00002204C490870484890ED000A38EEC00AD1
:1039C000B0EE408A90ED000A80ED030A90ED000A07
:1039D000B5EEC00AF1EE10FA35DD90ED000ADFED2C
:1039E000420AB4EEE00AF1EE10FA2CD2B5EEC08A2B
:1039F000F1EE10FA02D2B1EE480A01E0B0EE480A48
:103A0000DFED3A0AB4EEE00AF1EE10FA10DB4FF403
:103A100080513348FDF7B5FB3548007D00F0870045
:103A200040F02800324908750120324908700AE048
:103A30004FF480512A48FDF7A6FB01202949087060
:103A400000202C4908702C480078C8BB2B4800780F
:103A5000012836DD2A4800682A490968884210DBB7
:103A60004FF480511E48FDF78EFB0020214908705D
:103A700001202449086002202149086001201949D9
:103A80000870154890ED000ABDEEC00A1E4880ED92
:103A9000000A00681D490968884215DB4FF480510F
:103AA0000F48FDF770FB00201249087001201549EE
:103AB000086002201249086001200A49087003E0EA
:103AC000FFE7002012490860124880ED008ABDEC33
:103AD000028B10BD0000000028090020B402002065
:103AE000000402405B02002000A00C460000964348
:103AF0005C0900206C020020C30200202500002089
:103B0000640200205C0200206802002060020020A5
:103B1000B0020020AC02002000BFFEE710B52DED82
:103B2000028BB0EE408A2048007818B901201E4967
:103B3000087036E01C480078012817D11B4800683F
:103B40000A280ADAB5EEC08AF1EE10FA29DD4FF440
:103B500000511748FDF715FB23E013480078401C7F
:103B6000114908700020114908601AE00E480078D9
:103B7000022816D10D4800680A280ADAB5EEC08A74
:103B8000F1EE10FA0DDD4FF400510948FDF7FBFA94
:103B900007E005480078401E0349087000200349EB
:103BA0000860BDEC028B10BD780200207C02002072
:103BB0000004024010B52DED028BF0EE408A9FED1F
:103BC000650AB0EE408A644890ED010AB5EEC00A7D
:103BD000F1EE10FA1FD2614800780A280ADA5F482D
:103BE0000078401C5D4908705B4890ED040A80ED48
:103BF000010A13E04FF400615948FDF7C4FA4FF48D
:103C000080615748FDF7BFFA002054490870022030
:103C10005449087002E00020504908704E4890ED69
:103C2000010A30EE680AB0EE408A90ED010A80ED9C
:103C3000040AB5EEC08AF1EE10FA02D2B1EE480ADB
:103C400001E0B0EE480ADFED480AB4EEE00AF1EE1A
:103C500010FA2ADB404890ED010A30EE680AB0EE17
:103C6000408AB5EEC08AF1EE10FA0DD23F48007DD1
:103C700000F0870040F008003C4908754FF480616F
:103C80003748FDF77EFA62E0B5EEC08AF1EE10FA31
:103C90005DDD3648007D00F08700344908754FF43B
:103CA00000612F48FDF76DFA51E0B5EEC08AF1EEE4
:103CB00010FA02D2B1EE480A01E0B0EE480ADFED98
:103CC0002A0AB4EEE00AF1EE10FA40D2B5EEC08A4C
:103CD000F1EE10FA1BD29FED260AB4EEC08AF1EE87
:103CE00010FA06D2DFED1B0AB0EE480AFDF758FACB
:103CF0002DE04FF480611A48FDF745FA00201D4978
:103D000008701D4908600120164908701FE0B5EED3
:103D1000C08AF1EE10FA1ADB9FED180AB4EEC08AE1
:103D2000F1EE10FA06DDDFED0B0AB0EE480AFDF702
:103D300037FA0CE04FF400610948FDF724FA00203F
:103D40000C4908700C490860012006490870BDEC58
:103D5000028B10BD0000000028090020A7020020EF
:103D600000100240580200200000FA445C090020C4
:103D7000000048C3780200207C0200200000484375
:103D800010B52DED028BF0EE408A9FED630AB0EE88
:103D9000408A624890ED020AB5EEC00AF1EE10FAD0
:103DA0001FD25F4800780A280ADA5D480078401C74
:103DB0005B490870594890ED050A80ED020A13E04E
:103DC0004FF400715748FDF7DEF94FF48071554804
:103DD000FDF7D9F9002052490870022052490870B5
:103DE00002E000204E4908704C4890ED020A30EE87
:103DF000680AB0EE408A90ED020A80ED050AB5EE41
:103E0000C08AF1EE10FA02D2B1EE480A01E0B0EE3B
:103E1000480ADFED460AB4EEE00AF1EE10FA25DDBD
:103E2000B5EEC08AF1EE10FA0DDD4148007D00F0DC
:103E3000870040F010003E4908754FF48071394802
:103E4000FDF79FF964E0B5EEC08AF1EE10FA5FD29B
:103E50003748007D00F0870040F0180034490875AD
:103E60004FF400712F48FDF78CF951E0B5EEC08A90
:103E7000F1EE10FA02D2B1EE480A01E0B0EE480AC3
:103E8000DFED2A0AB4EEE00AF1EE10FA40D2B5EE08
:103E9000C08AF1EE10FA1BD29FED260AB4EEC08A5A
:103EA000F1EE10FA06D2F0EE480A9FED1B0AFDF77C
:103EB00077F92DE04FF400711A48FDF764F90020FE
:103EC0001D4908701D4908600120174908701FE04E
:103ED000B5EEC08AF1EE10FA1ADD9FED190AB4EEC4
:103EE000C08AF1EE10FA06DDF0EE480A9FED0A0AEC
:103EF000FDF756F90CE04FF480710A48FDF743F9DD
:103F000000200D4908700D4908600120064908701D
:103F1000BDEC028B10BD000000000000280900204D
:103F2000A802002000100240590200200000FA44BC
:103F30005C090020000048C3780200207C020020B9
:103F40000000484302E008C8121F08C1002AFAD145
:103F500070477047002001E001C1121F002AFBD109
:103F60007047000010B588B0044601210846FDF7EF
:103F7000A3FC01211020FDF7BFFC01218805FDF7FE
:103F80009BFC072209213548FDF7D8F807220A21B2
:103F90003248FDF7D3F802208DF80C0003208DF88D
:103FA0000D0000208DF80E0001208DF80F0040025A
:103FB000029002A92948FDF779F84FF48060029039
:103FC00002A92648FDF772F804940020ADF8140009
:103FD000ADF81600ADF81800ADF81C000C20ADF8D7
:103FE0001A0004A91E48FFF707FCFEF755FE0A2138
:103FF0000020FEF7A3FE012240211948FFF732FB03
:10400000012280211648FFF72DFB012210211548BF
:10401000FCF7A8FD25208DF8040001208DF805008F
:104020008DF806008DF8070001A8FDF7AFFB01220F
:1040300040F224410A48FFF7B9FB012240F2266111
:104040000748FFF7B3FB01210548FFF7FFFA4021BE
:104050000348FFF7E3FA08B010BD0000000002407B
:1040600000100140B864024010B588B00446012138
:104070000820FDF721FC01214804FDF72DFC01215A
:104080004805FDF719FC072205213548FDF756F8CC
:10409000072206213248FDF751F802208DF80C0066
:1040A00003208DF80D0000208DF80E0001208DF802
:1040B0000F002020029002A92948FCF7F7FF4020BA
:1040C000029002A92648FCF7F1FF04940020ADF805
:1040D0001400ADF81600ADF81800ADF81C000C2067
:1040E000ADF81A0004A91F48FFF786FBFFF7C4FAD2
:1040F0000A210020FFF7FEFA012240211948FFF7AC
:10410000B1FA012280211748FFF7ACFA01221021F1
:104110001548FCF727FD26208DF8040001208DF8B6
:10412000050002208DF8060001208DF8070001A887
:10413000FDF72CFB012240F224410A48FFF736FB31
:10414000012240F226610748FFF730FB01210548B4
:10415000FFF77CFA40210348FFF760FA08B010BD72
:10416000000C024000440040A060024010B588B03E
:10417000044601210220FDF79FFB01218804FDF781
:10418000ABFB01214805FDF797FB07220A213648C2
:10419000FCF7D4FF07220B213348FCF7CFFF0220A6
:1041A0008DF80C0003208DF80D0000208DF80E0016
:1041B00001208DF80F008002029002A92A48FCF726
:1041C00075FF4FF40060029002A92748FCF76EFFCC
:1041D00004940020ADF814004FF40050ADF8160020
:1041E0000020ADF81800ADF81C000C20ADF81A0046
:1041F00004A91E48FFF700FBFEF7B2FF0A210020CA
:10420000FFF702F8012240211848FFF72BFA01229C
:1042100080211648FFF726FA012210211448FCF7E6
:10422000A1FC27208DF8040001208DF805008DF8F1
:1042300006008DF8070001A8FDF7A8FA012240F258
:1042400024410A48FFF7B2FA012240F226610748EA
:10425000FFF7ACFA01210548FFF7F8F940210348C0
:10426000FFF7DCF908B010BD000402400048004030
:104270005860024010B588B0044601210420FDF7C3
:104280001BFB0121C804FDF727FB01214805FDF7B1
:1042900013FB08220A213748FCF750FF08220B21A4
:1042A0003448FCF74BFF02208DF80C0003208DF8FA
:1042B0000D0000208DF80E0001208DF80F00800207
:1042C000029002A92B48FCF7F1FE4FF40060029027
:1042D00002A92848FCF7EAFE04940020ADF8140077
:1042E0004FF40050ADF81600C010ADF818000020D3
:1042F000ADF81C000C20ADF81A0004A91E48FFF709
:104300007BFAFEF70FFC0A210020FEF747FC012292
:1043100040211948FFF7A6F9012280211648FFF72E
:10432000A1F9012210211548FCF71CFC34208DF85E
:10433000040001208DF805008DF806008DF80700B7
:1043400001A8FDF723FA012240F224410A48FFF7B1
:104350002DFA012240F226610748FFF727FA0121D2
:104360000548FFF773F940210348FFF757F908B0F4
:1043700010BD000000080240004C00407060024088
:104380004A480088401C4949088008464088401C2B
:10439000488008468088401C88800846C088401CA9
:1043A000C88008460089401C088108464089401C96
:1043B000488108468089401C88810846C089401C85
:1043C000C881084680880A2804DB084680880A38A5
:1043D00088806AE03548C088142866DA3348008946
:1043E000322817DB3148008932383049088130489B
:1043F0000078012804D12F480068401C2D4908602E
:104400002D480078012850D12C480068401C2B49C9
:1044100008604AE025484089C82846DB234840898F
:10442000C8382249488126480078012803D024480A
:104430000078022804D123480068401C2149086004
:1044400021480078012803D01F480078022804D1B1
:104450001E480068401C1D4908601D48B0F9000056
:10446000002805DB1A480088401C00B21849088063
:104470001848B0F90000002805DB16480088401CE9
:1044800000B21449088014480068002804DB124870
:104490000068401C1049086010480068002804DBD0
:1044A0000E480068401C0D490860704774090020E0
:1044B0006D0200205C0200206C02002064020020DB
:1044C0007002002074020020780200207C0200208C
:1044D00080020020880200204C00002050000020B4
:1044E00001B504490098086000BF02480068002830
:1044F000FBD108BD28000020FEF7F4F9FCF750F9C5
:10450000544890ED000A80ED030A90ED010A80ED19
:10451000040A90ED020A80ED050A06E00121084632
:10452000FCF76CFB4C48FFF7DBFF4C480078002899
:10453000F4D04B48007D40F0F00049490875012156
:104540004848FEF77AFA83E04748C088142867DBBA
:104550004548C08814384449C88044480078012838
:1045600003D10220414908705AE0404800780028F1
:1045700056D03E480078022852D13D4800780128A4
:1045800041D13C4800780B283BD2DFE800F03A06E6
:10459000101A3A3A2434372E31003748D0ED010A48
:1045A000F8EEE00AB0EE600AFDF732F82AE0324891
:1045B000D0ED030AF8EEE00AB0EE600AFDF78AF8E3
:1045C00020E02D48D0ED050AF8EEE00AB0EE600AD2
:1045D000FCF7C0FF16E02848D0ED050AF8EEE00A27
:1045E000B0EE600AFCF7F4FE0CE0FCF7C9FE09E04F
:1045F000FCF73CFF06E0FCF787FF03E0FCF75EFFFB
:1046000000E000BF0CE01A480078022802D1FDF754
:104610005DFE05E016480078032801D1FDF7D0FCC7
:1046200011488089B0F5C87F12DB14480078012852
:1046300004D1FDF71DFA00201049087010480078D9
:1046400018B910480078012802D101200E490860ED
:104650007AE7000028090020A08601006F020020F0
:104660005C09002000140040740900202400002090
:1046700025000020BD020020E402002026000020CA
:1046800090020020BE020020A882414270B504467C
:104690000D46AA20E07025712079E1780844607108
:1046A00006212046FEF734FB70BD70B504460D466A
:1046B000AA20E07025712079E17808446071062114
:1046C0002046FEF735FC70BDE846000800000020DB
:1046D000C4020000A604000840480008C4020020EC
:1046E000240B0000543F000811847A030A68090172
:1046F000020304060708090CA91001173A013D49F5
:1047000006115AFF01112808C1814001C0804104EF
:10471000690C2908E918A91C091A30091638093644
:1047200060092E70092F6000FF00C0C101C30302A1
:10473000C2C60607C705C5C404CC0C0DCD0FCFCE2D
:104740000E0ACACB0BC90908C8D81819D91BDBDA5D
:104750001A1EDEDF1FDD1D1CDC14D4D515D717167D
:10476000D6D21213D311D1D010F03031F133F3F28D
:104770003236F6F737F53534F43CFCFD3DFF3F3E6D
:10478000FEFA3A3BFB39F9F83828E8E929EB2B2AFD
:10479000EAEE2E2FEF2DEDEC2CE42425E527E7E6BD
:1047A0002622E2E323E12120E0A06061A163A3A22D
:1047B0006266A6A767A56564A46CACAD6DAF6F6EAD
:1047C000AEAA6A6BAB69A9A86878B8B979BB7B7ADD
:1047D000BABE7E7FBF7DBDBC7CB47475B577B7B6FD
:1047E0007672B2B373B17170B050909151935352CD
:1047F0009296565797559594549C5C5D9D5F9F9EED
:104800005E5A9A9B5B99595898884849894B8B8A7C
:104810004A4E8E8F4F8D4D4C8C448485458747463C
:104820008682424383418180824032011AFF0132F5
:10483000021AFE080114691609141E012412FF0051
:040000050800018965
:00000001FF
