:020000040800F2
:10000000E80D00209D010008A9160008BB1000089B
:10001000A516000835080008A53C000800000000EF
:10002000000000000000000000000000091E0008A1
:100030009D0C0008000000008D1700082929000809
:10004000B7010008B7010008B7010008B7010008B0
:10005000B7010008B7010008B7010008B7010008A0
:10006000B7010008B7010008B7010008B701000890
:10007000B7010008B7010008B7010008B701000880
:10008000B7010008B7010008B7010008B701000870
:10009000B7010008B7010008B7010008B701000860
:1000A000B7010008B7010008B7010008B701000850
:1000B000B7010008B7010008B7010008B701000840
:1000C000B7010008B7010008B7010008B701000830
:1000D000B7010008ED2D0008AD2F0008953200088B
:1000E0006D0E0008B7010008B7010008B70100084D
:1000F000B7010008B7010008B7010008B701000800
:10010000B7010008B7010008B7010008B7010008EF
:100110004D2C0008B7010008B7010008012A0008AB
:10012000B7010008B7010008B7010008B7010008CF
:10013000B7010008B7010008B7010008B7010008BF
:10014000B7010008B7010008B7010008B7010008AF
:10015000B7010008B7010008B7010008B936000868
:10016000B7010008B7010008B7010008B70100088F
:10017000B7010008B7010008B7010008B70100087F
:10018000B7010008B7010008DFF80CD000F05AF9F9
:100190000048004771460008E80D002006488047E7
:1001A00006480047FEE7FEE7FEE7FEE7FEE7FEE75C
:1001B000FEE7FEE7FEE7FEE799290008890100084F
:1001C000D2B201E000F8012B491EFBD27047002299
:1001D000F6E710B513460A4604461946FFF7F0FF46
:1001E000204610BD2DE9F04D81EA030404F0004BD8
:1001F00021F0004514464FF0000A23F0004150EA78
:10020000050220D054EA01021DD0C5F30A57024668
:10021000C5F31303C1F31300C1F30A5640F480156C
:1002200043F48013A7EB0608101BD64608F2FD38EE
:1002300073EB050002D308F1010801E092185B415D
:10024000B8F1000F03DA00200146BDE8F08D002070
:100250004FF48011064684460EE0171B73EB05072A
:1002600005D3121B63EB050306434CEA010C490856
:100270004FEA300092185B4150EA0107EDD152EA93
:10028000030012D082EA040083EA0501084305D086
:10029000101BAB4106D20122002306E000224FF0E2
:1002A000004302E06FF0010253101AEB06004CEB22
:1002B000085110EB0A0041EB0B01BDE8F04D00F0D6
:1002C00064B80EB5C10F80EAE0700844CA07002187
:1002D00040F233438DE80E000A460B4600F064F806
:1002E00003B000BD01F0004330B421F0004150EAFA
:1002F000010206D00A0DA2F56072C1F31301002AB3
:1003000002DC30BC00207047440F44EAC104C10045
:10031000E01830BC00EBC250AFF300800029A8BF4A
:100320007047401C490008BF20F00100704710B41E
:10033000B0FA80FC00FA0CF050EA010404BF10BCD3
:10034000704749B1CCF1200421FA04F411FA0CF100
:1003500018BF012121430843A3EB0C01CB1D4FEA39
:1003600000614FEA102042BF002010BC704700EB34
:10037000C35010440029A4BF10BC7047401C490062
:1003800008BF20F0010010BC704710B5141E73F1B7
:10039000000408DA401C41F1000192185B411A4345
:1003A00001D120F0010010BD2DE9F04D92469B4691
:1003B00011B1B1FA81F202E0B0FA80F22032904637
:1003C00000F052F804460F4640EA0A0041EA0B01E9
:1003D00053465A46084313D0114653EA010019D038
:1003E000C8F14002504600F04EF805460E46504611
:1003F0005946424600F038F8084305D0012004E091
:1004000020463946BDE8F08D0020054346EAE076F7
:100410002C4337430A986305E40AA0EB0800002246
:10042000FD0A44EA47540A3002D500200146E9E7B4
:10043000010510196941DDE9084500196941BDE868
:10044000F04DA2E7064C074D06E0E06840F00103DE
:1004500094E8070098471034AC42F6D3FFF798FEB3
:100460005448000874480008202A04DB203A00FAA7
:1004700002F1002070479140C2F1200320FA03F3FB
:10048000194390407047202A04DB203A21FA02F0F9
:100490000021704721FA02F3D040C2F120029140BE
:1004A00008431946704770B58C1810F8015B15F0B9
:1004B000070301D110F8013B2A1106D110F8012BD6
:1004C00003E010F8016B01F8016B5B1EF9D12B07FB
:1004D00005D40023521E0DD401F8013BFAE710F8B1
:1004E000013BCB1A921C03E013F8015B01F8015B9E
:1004F000521EF9D5A142D8D3002070BD21B1826827
:1005000042F00102826003E0826822F00102826010
:10051000704700000021084A1168084A1140D0E9DC
:1005200000231A4383681A43C3681A431143044AD9
:10053000C2F804137047000004230140E030FCFFC0
:100540000020014021B1826842F48072826003E0A1
:10055000826822F480728260704721B1826842F41E
:100560000072826003E0826822F400728260704749
:1005700000B58DB00121022001F05AF901210420BB
:1005800001F056F90121080201F072F901200B90E7
:1005900003208DF8300000208DF833000BA92A4885
:1005A00000F014FD10200B9003208DF83000002087
:1005B0008DF833000BA9254800F008FD0121080241
:1005C00001F066F900214FF4807001F061F900201C
:1005D00007904FF470600A904FF4804009908000BB
:1005E000089007A8FFF796FF0020019001208DF8E2
:1005F00008008DF8090000200390059002208DF876
:10060000180001A9124800F025F801211048FFF751
:1006100075FF0723012208210D4800F045F8072344
:1006200002220E210A4800F03FF800F06FF9084856
:1006300000F096F801210648FFF78FFF01210448DA
:10064000FFF780FF0DB000BD00040240000802402B
:100650000020014030B50246002000235068104CB5
:1006600020400D790C6844EA0524204350609068CE
:100670000C4C2040D1E903542C438D682C434D7918
:1006800044EA450420439060D06A20F470000C7D59
:10069000641EE4B2234340EA0350D06230BD000040
:1006A000FFFEFFFCFDF7FFC0F0B504460D4600203D
:1006B0000021092D11DDE068A5F10A0606EB4607C9
:1006C000072606FA07F18843A5F10A0606EB460657
:1006D00003FA06F10843E0600CE0206905EB4507EA
:1006E000072606FA07F1884305EB450603FA06F1EB
:1006F00008432061072A0FDA606B561E06EB860757
:100700001F2606FA07F18843561E06EB860605FAF1
:1007100006F10843606322E00D2A0FDA206BD61F32
:1007200006EB86071F2606FA07F18843D61F06EB5D
:10073000860605FA06F10843206310E0E06AA2F19C
:100740000D0606EB86071F2606FA07F18843A2F17D
:100750000D0606EB860605FA06F10843E062F0BDD9
:10076000816841F080418160704700001CB5012123
:10077000082001F05DF84FF48060009001208DF8B2
:10078000040000208DF806008DF8070002208DF887
:1007900005006946014800F019FC1CBD000C024030
:1007A00010B500F063FD00F049FDFFF7E1FEFFF733
:1007B000DDFF01F01BFA00F06DFB4FF4E13002F0B9
:1007C000D7FB4FF4E13002F0D9FC4FF4E13001F0F7
:1007D000E3F84FF4E13002F069FA532140F2F310EC
:1007E00002F01EF910BD000010B50D480078012878
:1007F00014D10C480078012810D10B4890ED000A64
:10080000DFED0A0AB4EEE00AF1EE10FA06DD084860
:10081000007818B99FED050A03F024F910BD000017
:100820006F0200206E0200204C0900200000FA43F5
:100830005B02002000BFFEE770B502460C46FF25B4
:10084000FF2309E012F8010B80EA03010648405C2F
:1008500080EA05030548455C201EA4F10106F4B2B8
:10086000F0D145EA032070BD580000205801002057
:1008700010B51648007D00F0870040F0380013499D
:1008800008751348B0F9000000280ADB1048B0F9D9
:100890000000322805DC4FF400410E4800F001FC56
:1008A00013E00B48B0F9000032280ADB0848B0F921
:1008B00000003C2805DC4FF40041064800F0F3FB43
:1008C00003E06FF001000249088010BD5C090020C0
:1008D000800200200004024010B50848B0F9000072
:1008E000401C10B90020054908800448B0F90000F8
:1008F000002801DBFFF7BCFF10BD000080020020D4
:1009000001494875704700005C09002000B58FB0B0
:100910000121880500F08CFF174800F03FF800BF68
:10092000154800F0E7F80028FAD10090134801902C
:1009300013480290002003900220049000200590AC
:100940004FF480600690400007900890C010099016
:1009500040020A9000200B9001200C9000200D9086
:100960000E906946044800F0F1F80121024800F0B9
:1009700009F80FB000BD0000106402404C20014097
:100980003E00002021B1026842F00102026003E053
:10099000026822F00102026070470000016821F045
:1009A000010101600021016041608160C16001615D
:1009B000212141614A49884204D13D21484A103AE7
:1009C00091608CE046491831884205D14FF474613A
:1009D000434A103A916082E041493031884205D162
:1009E0004FF474113E4A103A916078E03C49483126
:1009F000884205D14FF07461394A103A91606EE037
:100A000037496031884204D13649354A103AD160BD
:100A100065E033497831884204D13349304A103A8D
:100A2000D1605CE02E499031884204D12F492C4A94
:100A3000103AD16053E02A49A831884205D14FF0DD
:100A40003D51274A103AD16049E02949884204D1F2
:100A50003D21274A083A116041E025491831884272
:100A600005D14FF47461224A083A116037E02049F9
:100A70003031884205D14FF474111D4A083A116093
:100A80002DE01B494831884205D14FF07461184A66
:100A9000083A116023E016496031884204D11149B7
:100AA000134A121F11601AE011497831884204D1AB
:100AB0000D490F4A121F116011E00D499031884213
:100AC00004D10A490A4A121F116008E00849A831F6
:100AD000884204D14FF03D51054A121F1160704702
:100AE000106002403D000020400F002000003D202B
:100AF00010640240014600200A6802F001020AB1B7
:100B0000012000E0002070470146486880B270472D
:100B100010B501F080034BB122B1436943F080036B
:100B2000436103E0436923F08003436180290BD0D4
:100B30002AB1036801F01E042343036004E0036844
:100B400001F01E04A343036010BD000010B5002295
:100B50000268134B1A40CC680B6823434C6923434B
:100B60008C692343CC6923430C6A23434C6A234397
:100B70008C6A23434C6B23438C6B23431A430260E0
:100B8000426922F00702D1E90B3423431A43426140
:100B90000B6943604B6883608B68C36010BD0000C5
:100BA0003F801CF04160704770B52DED048B054609
:100BB0000C469FED360AB0EE408A9FED340AB0EE47
:100BC000409A9FED320AF0EE408A7DBB012C2ED177
:100BD0002F4890ED010AD0ED040A30EE600AB0EE25
:100BE000409A90ED020AD0ED050A30EE600AF0EE70
:100BF000408AB5EEC09AF1EE10FA0AD1F5EEC08A3D
:100C0000F1EE10FA05D100202249087001F07EF8BB
:100C100002E001201F4908701D4890ED010A80ED97
:100C2000040A90ED020A80ED050A2BE004E024BBE3
:100C3000002001F09FF825E0012D23D1012C1DD1CA
:100C4000134890ED000AD0ED030A30EE600AB0EED2
:100C5000408AB5EEC08AF1EE10FA06D100200E49A6
:100C60000870012001F052F802E001200A490870E2
:100C7000074890ED000A80ED030A03E014B9012053
:100C800001F078F8BDEC048B70BD0000000000009E
:100C9000280900206E0200206F020020704700002B
:100CA00010B52DED048BB0EE408A9FED560AB0EEE4
:100CB000409A9FED540AF0EE408A534890ED000AA6
:100CC00038EE400AF0EE408A504890ED000A4E4857
:100CD000D0ED000A78EE600A30EE600AB0EE409A7D
:100CE0004B48007801284ED1474890ED000AB5EEF8
:100CF000C00AF1EE10FA1DDD90ED000ADFED450AA5
:100D0000B4EEE00AF1EE10FA14D29FED430AF4EECD
:100D1000C08AF1EE10FA0DDD4FF400513F4800F0AB
:100D2000C0F93F48007D00F0870040F030003C49AA
:100D3000087528E0344890ED000AB5EEC00AF1EEDF
:100D400010FA18DD90ED000ADFED320AB4EEE00A89
:100D5000F1EE10FA0FD29FED300AF4EEC08AF1EEF8
:100D600010FA08D24FF400512C4800F09CF90120F1
:100D70002C49087007E04FF40051284800F093F91F
:100D800002202849087022480078012837DD1E48D3
:100D900090ED000AB5EEC00AF1EE10FA20DD90EDFC
:100DA000000ADFED1C0AB4EEE00AF1EE10FA17D2E9
:100DB0009FED1D0AF4EEC08AF1EE10FA10DD4FF43B
:100DC0000051164800F06DF90120184908701448C8
:100DD000007D00F0870040F03000114908750EE0FA
:100DE0004FF400510D4800F05EF900200F490870E3
:100DF0000F4908700F49086001200A490870BDECCE
:100E0000048B10BD000000004C09002028090020C0
:100E10002500002000A00C4600009643000402407C
:100E20005C0900205A02002000007A446D02002074
:100E3000780200207C02002010B52DED028BB0EE70
:100E4000408A08480078012808D10748007820B96E
:100E5000B0EE480AFFF724FF00E000BFBDEC028BB4
:100E600010BD00006F0200205A02002010B54FF4A0
:100E7000006000F055F818B14FF4006000F04AF837
:100E80004FF4805000F04CF818B14FF4805000F04F
:100E900041F810BD00B585B00121082000F0C8FC64
:100EA0004FF4C050039000208DF8100002208DF800
:100EB000110003A9164800F089F80121880300F009
:100EC000D7FC0B21032000F0A1FF0C21032000F030
:100ED0009DFF4FF4C050009000208DF804000820C2
:100EE0008DF8050001208DF80600684600F024F812
:100EF00028208DF8080000208DF809008DF80A00E0
:100F000001208DF80B0002A800F0D0FB05B000BD59
:100F1000000C02400149086070470000143C014089
:100F200001460020034A12680A400AB1012000E08D
:100F300000207047143C0140002123498279002A97
:100F40003AD00A46126803689A430B461A600A1D93
:100F5000126803689A430B1D1A60027911440A68EB
:100F600003681A430A60184A0832126803689A43F1
:100F7000154B08331A601A1D126803689A43124B06
:100F80000C331A604279102A0ED11A1F12680368B6
:100F90001A430D4B08331A601A1D126803681A436E
:100FA000094B0C331A600DE00749427911440A6875
:100FB00003681A430A6005E0027911440A6803686D
:100FC0009A430A6070470000003C0140F0B50A46B1
:100FD00000210023002400BF3DE0012505FA01F3B4
:100FE000156805EA03049C4234D105684F000326C6
:100FF000BE40B543056015794E00B54006683543DF
:1010000005601579012D02D01579022D16D185685C
:101010004F000326BE40B543856055794E00B5406C
:10102000866835438560456801268E40B543456036
:10103000456896798E40B6B235434560C5684F0025
:101040000326BE40B543C560D5794E00B540C6689D
:101050003543C560491C1029BFD3F0BDF0B500234E
:1010600000244D07ED0E02FA05F3CE1000F1200525
:1010700055F826504E07F70E0F26BE40B543CF1049
:1010800000F1200646F82750CE1000F1200555F853
:10109000265045EA0304CE1000F1200545F826400D
:1010A000F0BD418370470183704710B5FFF714FC12
:1010B00010BD10B500F016FE10BD00BFFEE7000029
:1010C00010B52DED028BF0EE408AB0EE608A4448F8
:1010D000007840B900204349087043490860012066
:1010E0003F49087078E03E480078012838D13F48F1
:1010F00000680A282BDAF5EEC08AF1EE10FA05DD59
:101100004FF400613A48FFF7CCFF65E0F5EEC08A86
:10111000F1EE10FA05D24FF480613548FFF7C1FFB8
:101120005AE0B5EEC08AF1EE10FA05DD4FF4807199
:101130002F48FFF7B6FF4FE0B5EEC08AF1EE10FA88
:101140004AD24FF400712A48FFF7ABFF44E024482D
:101150000078401C224908700020244908603BE0C8
:101160001F480078022837D1204800680A282BDA67
:10117000F5EEC08AF1EE10FA05DD4FF400611C486F
:10118000FFF791FF28E0F5EEC08AF1EE10FA05D2E4
:101190004FF480611648FFF786FF1DE0B5EEC08A68
:1011A000F1EE10FA05DD4FF480711148FFF77BFF77
:1011B00012E0B5EEC08AF1EE10FA0DD24FF40071D4
:1011C0000B48FFF770FF07E005480078401E044910
:1011D0000870002005490860BDEC028B10BD0000BE
:1011E0007802002070020020740200207C0200209F
:1011F0000010024010B52DED028BF0EE408AB0EEEB
:10120000608A0B48007801280ED10A48007820B97E
:10121000B0EE680A02F048FD06E00748007818B909
:10122000B0EE480A02F026FEBDEC028B10BD0000B5
:101230006E02002058020020590200201CB5012136
:10124000102000F0F5FA3820009000208DF80400FE
:1012500001208DF8070002208DF80500694602483C
:10126000FFF7B4FE1CBD0000001002401CB50121B8
:10127000084600F0DDFA0820009001208DF80400F7
:1012800000208DF806008DF8070002208DF805007B
:1012900069460248FFF79AFE1CBD000000000240AC
:1012A00010B5FFF719FB0C48B0F90000801C88B995
:1012B0000A48007D00F0870040F0480007490875A3
:1012C0000020074908700749087007490870401E48
:1012D0000649088010BD0000800200205C09002043
:1012E000BD020020240000202500002088020020EC
:1012F00010B52DED028BB0EE408A1C480078012815
:1013000031D11B480068801C68BB1A48007820B99E
:10131000B0EE480AFFF7C4FC25E016480078012823
:1013200009D1002014490870144908701449087044
:101330001049087017E00F480078022813D100F018
:1013400027FA01200F4908700F48007D00F07F0048
:101350000D490875002008490870084908700849B7
:10136000087004490870BDEC028B10BD6F020020AC
:10137000500000205A020020BD020020240000205E
:1013800025000020BE0200205C09002010B500F0FE
:10139000A9FC0C48B0F90000801C88B90A48007DFF
:1013A00000F0870040F04800074908750020074911
:1013B00008700749087007490870401E06490880F0
:1013C00010BD0000880200205C090020BD02002042
:1013D00024000020250000208002002010B500F02D
:1013E000D7F90B480068801C88B90A48007D00F0D6
:1013F000870040F070000749087500200649087012
:101400000649087006490870401E0649086010BD6C
:10141000540000205C09002024000020250000204A
:10142000BD0200205000002010B500F0EFF90B487D
:101430000068801C88B90A48007D00F0870040F0F1
:1014400068000749087500200649087006490870B9
:1014500006490870401E0649086010BD5000002073
:101460005C0900202400002025000020BD0200208F
:101470005400002010B52DED028BB0EE408A2348B9
:10148000007801283ED122480068801C002839D10C
:101490002048007820B9B0EE480A02F0E3FA31E0C3
:1014A0001C480078012811D100201B4908701B49F5
:1014B00008701B490870174908701A48007D00F031
:1014C000870040F04800174908751BE01148007874
:1014D000022817D100F05CF913480068801C88B915
:1014E0000120124908700F48007D00F07F000D496F
:1014F00008750020084908700849087008490870F4
:1015000004490870BDEC028B10BD00006F02002082
:10151000500000205B020020BD02002024000020BB
:10152000250000205C09002054000020BE0200209D
:1015300010B52DED028BB0EE408A244800780128CA
:1015400040D123480068801C00283BD12148007806
:1015500020B9B0EE480A02F0A7FB33E01D4800783E
:10156000012813D100201C4908701C490870194932
:1015700008701B4908701B4908701B48007D00F06B
:10158000870040F04800184908751BE011480078B2
:10159000022817D100F0FCF8012014490870144803
:1015A0000068801C70B94FF0FF300949086010498D
:1015B0000860002008490870084908700849087048
:1015C00004490870BDEC028B10BD00006E020020C3
:1015D0005000002058020020BD02002024000020FE
:1015E00025000020780200205C090020BE020020B7
:1015F0005400002010B52DED028BB0EE408A21483A
:10160000007801283BD120480068801C002836D192
:101610001E48007820B9B0EE480A02F02BFC2EE0FC
:101620001A480078012811D1002019490870194979
:10163000087019490870154908701848007D00F0B5
:10164000870040F048001549087518E00F480078F9
:10165000022814D100F09CF811480068801C70B971
:101660004FF0FF30084908600D4908600020084924
:101670000870084908700849087004490870BDECF2
:10168000028B10BD6E020020500000205902002085
:10169000BD02002024000020250000205C0900205D
:1016A0005400002000BFFEE77047000070B5002125
:1016B00000230F22C4781CB3174C246804F4E064A0
:1016C000C4F5E064C4F30721C1F10404E3B20A41A4
:1016D00044789C40E1B28478144021430C07210EE9
:1016E0000E4C05786155047804F01F050124AC40C8
:1016F00005786D11AD0005F1E025C5F8004109E060
:10170000047804F01F050124AC40054D06787611DD
:1017100045F8264070BD00000CED00E000E400E05C
:1017200080E100E010B51648007D00F0870040F031
:101730004000134908751348B0F9000000280ADB7F
:101740001048B0F90000322805DC4FF480410E4803
:10175000FFF7A7FC13E00B48B0F9000032280ADBC2
:101760000848B0F900003C2805DC4FF480410648E9
:10177000FFF799FC03E06FF001000249088010BDFB
:101780005C0900208802002000040240704700002D
:1017900010B51B480068401C10B9002018490860AB
:1017A00017480068002829DB4FF480711548FFF7BF
:1017B0007AFC4FF400711348FFF775FC4FF4006199
:1017C0001048FFF770FC4FF480610E48FFF76BFC88
:1017D0004FF480510C48FFF766FC4FF400510A4863
:1017E000FFF761FC4FF400410748FFF75CFC4FF442
:1017F00080410548FFF757FC00F0ACF910BD000030
:1018000054000020001002400004024010B50748B8
:101810000068401C10B900200449086003480068B3
:10182000002801DB00F0BCF910BD000050000020D2
:1018300029B1064A12680243044B1A6004E0034AC5
:1018400012688243014B1A60704700003038024032
:1018500029B1064A12680243044B1A6004E0034AA5
:1018600012688243014B1A60704700004038024002
:1018700029B1064A12680243044B1A6004E0034A85
:1018800012688243014B1A607047000044380240DE
:1018900029B1064A12680243044B1A6004E0034A65
:1018A00012688243014B1A607047000024380240DE
:1018B000F0B5002100220024022500260223324F29
:1018C0003F6807F00C0121B1042905D0082937D160
:1018D00005E02E4F076036E02D4F076033E02A4FBA
:1018E0003F1F3F68C7F38056274F3F1F3F6807F0F1
:1018F0003F036EB1264FB7FBF3F7DFF88CC0ACF1B6
:10190000040CDCF800C0CCF3881C07FB0CF40CE0E2
:101910001E4FB7FBF3F7DFF870C0ACF1040CDCF836
:1019200000C0CCF3881C07FB0CF4174F3F1F3F6827
:10193000C7F301477F1C7D00B4FBF5F7076002E0A9
:10194000124F076000BF00BF0F4F3F6807F0F00164
:101950000909104F7A5C0768D74047600A4F3F6813
:1019600007F4E051890A0B4F7A5C4768D7408760DB
:10197000054F3F6807F46041490B064F7A5C4768A2
:10198000D740C760F0BD0000083802400024F400D2
:1019900000127A00140000201CB50446204601F015
:1019A0006FFE01210846FFF743FF0620009001204B
:1019B0008DF8040000208DF8060003208DF8050046
:1019C00001208DF8070069460448FFF7FFFA002060
:1019D000034908600349C1F888021CBD00000240A9
:1019E000840240420000404270B59AB000240025B5
:1019F00000260020199064216846FEF7E8FBAA2023
:101A000050490870084602782146641C4E484254EA
:101A1000641C4C4802792146641C4B484254494896
:101A200042792146641C48484254464882792146FE
:101A3000641C454842544348027A2146641C42488B
:101A400042544048427A2146641C3F4842543D4833
:101A5000827A2046611CCCB23B490A543948027B49
:101A60002046611CCCB238490A543648427B204695
:101A7000611CCCB234490A543248827B2046611C36
:101A8000CCB231490A542F48027C2046611CCCB2AA
:101A90002D490A542B48427C2046611CCCB22A496D
:101AA0000A542848827C2046611CCCB226490A543C
:101AB0002448C27C2046611CCCB223490A542148E8
:101AC000427D2046611CCCB21F490A541D48027D4C
:101AD0002046611CCCB21C490A54022508E01A4871
:101AE000425D3046711CCEB20DF80020681CC5B2B4
:101AF000A542F4DB31466846FEF79EFE19909DF83C
:101B000064202046611CCCB20F490A549DF8652020
:101B10002046611CCCB20C490A54EE222046611CBE
:101B2000CCB209490A5408464470012007490860AC
:101B30000749C1F888022146034801F061FB1AB049
:101B400070BD00005C09002084090020840240422E
:101B50000000404210B510480068002809DB0E481C
:101B60000068192805DC4FF400710C48FFF799FA5A
:101B700011E009480068192809DB07480068322885
:101B800005DC4FF400710548FFF78DFA03E06FF0B4
:101B900001000149086010BD54000020000C024003
:101BA00010B510480068002809DB0E4800681928A5
:101BB00005DC4FF480710C48FFF773FA11E0094817
:101BC0000068192809DB07480068322805DC4FF453
:101BD00080710548FFF767FA03E06FF001000149E3
:101BE000086010BD50000020000C02401CB501210F
:101BF0001A20FFF71DFE4FF47040009001208DF871
:101C0000040000208DF8060001208DF80700022056
:101C10008DF8050069463048FFF7D8F94FF4E060C9
:101C2000009001208DF8040000208DF806000120AE
:101C30008DF8070002208DF8050069462748FFF758
:101C4000C5F94FF47060009001208DF80400002069
:101C50008DF8060001208DF8070002208DF80500A0
:101C600069461F48FFF7B2F94FF480711C48FFF72F
:101C70001AFA4FF400711A48FFF715FA4FF4806111
:101C80001748FFF710FA4FF400611548FFF70BFAF9
:101C90004FF480511048FFF706FA4FF400510E48F8
:101CA000FFF701FA4FF400410B48FFF7FCF94FF43E
:101CB00080410948FFF7F7F94FF480710748FFF7B3
:101CC000F2F94FF400710548FFF7EDF94FF4806128
:101CD0000248FFF7E8F91CBD00040240000C024076
:101CE0000010024010B50848B0F90000401C10B9BF
:101CF0000020054908800448B0F90000002801DBF5
:101D0000FFF710FD10BD00008802002010B504464A
:101D100014B1012C06D102E000F008F803E000F055
:101D200017F800E000BF00BF10BD000010B5002490
:101D300008E00121054802F06FFD44F6206002F042
:101D40008BFC641C052CF4DB10BD0000420000205D
:101D500010B5002408E00121054802F06CFD44F6AE
:101D6000206002F079FC641C052CF4DB10BD00003F
:101D70004800002010B5044614B1012C06D102E041
:101D800000F008F803E000F017F800E000BF00BF23
:101D900010BD000010B5002408E00021054802F045
:101DA0003BFD44F6206002F057FC641C052CF4DB7C
:101DB00010BD00004200002010B5002408E0002102
:101DC000054802F038FD44F6206002F045FC641C32
:101DD000052CF4DB10BD00004800002010B50748BA
:101DE0000078012808D10648007820B99FED050A3F
:101DF00001F038FE00E000BF10BD00006F020020BF
:101E00005B0200200000FA437047000030B500225A
:101E10008B071C0F0F2303FA04F20B4B8C1053F8A3
:101E200024309343084C8D1044F8253023468C1001
:101E300053F824308C07240F00FA04F42343024C97
:101E40008D1044F8253030BD083801400CB5002015
:101E5000019000903448006840F4803032490860B6
:101E600000BF3148006800F4003000900198401C29
:101E70000190009818B90198B0F5A04FF1D12A4807
:101E8000006800F4003010B10120009001E0002053
:101E900000900098012846D123484030006840F067
:101EA00080502149403108602048006840F440409B
:101EB0001E4908601C48083000681B49083108604A
:101EC0000846006840F4004008600846006840F496
:101ED000A05008601648091F0860081F006840F0FD
:101EE0008070091F086000BF0F48006800F0007094
:101EF0000028F9D040F205700E4908600A48083001
:101F0000006820F0030008490831086008460068AE
:101F100040F00200086000BF03480830006800F08D
:101F20000C000828F8D10CBD0038024000700040B9
:101F300008544007003C024010B5C8480078C0B9BA
:101F4000FFF764FCC6480068801C002810D1C34815
:101F50000078401CC14908704FF0FF30C04908604C
:101F6000C04890ED000AB8EEC00ABF4880ED000AF4
:101F700040E1BA48007801280ED1FEF735FCBB4895
:101F800000780128F4D1B5480078401CB3490870A6
:101F90000020B64908702DE1B0480078022829D108
:101FA000B34890ED021AB8EEC11AF0EE410A90ED76
:101FB000001AB8EEC11AB0EE410AFFF71BF9AD489E
:101FC00000780128D4D1AC4800780128D0D1A348AA
:101FD0000078401CA14908700020A6490870A64955
:101FE0000870A04890ED000AB8EEC00A9E4880ED47
:101FF000000AFFE099480078032818D19C48D0EDEA
:10200000040AF8EEE00AB0EE600AFEF715FF9B48FE
:1020100000780128ACD191480078401C8F490870A5
:10202000002096490870012095490880E2E08B481D
:102030000078042818D1FFF738F89148B0F900006B
:1020400010F1020F94D185480078401C8349087034
:1020500000208B490880834890ED000AB8EEC00A42
:10206000814880ED000AC5E07C48007805280ED143
:10207000FFF7B4FE7D48007801288CD177480078BE
:10208000401C76490870002078490870B2E0734817
:102090000078062829D1764890ED031AB8EEC11AC7
:1020A000F0EE410A90ED011AB8EEC11AB0EE410A05
:1020B000FFF7A0F86F48007801289AD16E480078A1
:1020C000012896D165480078401C644908700020BA
:1020D0006849087068490870624890ED000AB8EED7
:1020E000C00A614880ED000A84E05C480078072857
:1020F00018D15F48D0ED050AF8EEE00AB0EE600AAC
:10210000FEF79AFE5D480078012873D153480078A5
:10211000401C524908700020584908700120594954
:10212000088067E04D480078082818D1FEF7C1FF05
:102130005448B0F9000010F1020F5BD14748007815
:10214000401C4649087000204E490880454890EDE3
:10215000000AB8EEC00A444880ED000A4AE03F4851
:10216000007809280ED1FFF739FE40480078012891
:1021700040D13A480078401C3849087000203B495B
:10218000087037E0354800780A2818D1DFED3E0A9C
:102190009FED3E0AFFF72EF836480078012829D136
:1021A00035480078012825D12C480078401C2B495F
:1021B000087000202F4908702F4908701AE027483E
:1021C00000780B2816D1FFF7E3FA31480068801C2D
:1021D00080B93048007D00F0870040F040002D4974
:1021E00008754FF0FF302A49086000202A4908701E
:1021F0002A4908701F48007802280BD01E48007832
:10220000022807D01D480078022803D0174800781C
:10221000022822D1FFF7BCFA1D480068801CE0B9F3
:102220000E4800781E4908701A48007D00F0F00042
:10223000184908754FF0FF3015490860002007491C
:1022400008700C4908700C4908700C49087007495F
:102250000870114908701149087010BDBF020020B4
:1022600050000020280000204C0900205B020020C4
:10227000E402002058020020590200205A020020E7
:10228000800200208802002000401C450080BB44E2
:10229000540000205C0900202400002025000020BC
:1022A0009002002010B5FE480078002843D1FD4878
:1022B0000078F8B9FFF7AAFAFB480068801CA0BBB9
:1022C000FA48007D00F0870040F06800F749087583
:1022D000F3480078401CF24908704FF0FF30F24993
:1022E0000860F34890ED000AB8EEC00AF14880EDAE
:1022F000000A1AE0EB480078012816D1E84909786D
:10230000491CC8B2FEF7FCFAEB48007801280CD152
:102310000020E6494875E2480078401CE049087012
:102320000020E0490870E4490870E048007DF12091
:10233000DE490875A2E2DA480078012833D1D9488D
:102340000078A0B90120DD490870FEF74DFA0020A1
:10235000DA490870DA4800780128EBD1D0480078D3
:10236000401CCF4908700020D549087086E2CD484E
:1023700000780128DED1CA490978491CC8B2FEF7A5
:10238000BFFACD4800780128D4D10020C74948754C
:10239000C3480078401CC24908700020C149087039
:1023A000C54908706AE2BE480078022848D1BD4895
:1023B000007848BBC34890ED021AB8EEC11AF0EE9F
:1023C000410A90ED001AB8EEC11AB0EE410AFEF7CC
:1023D00011FFBD4800780128ACD1BC480078012825
:1023E000A8D1AF480078401CAD4908700020B6491C
:1023F0000870B6490870AE4890ED000AB8EEC00A01
:10240000AC4880ED000A39E2A6480078012891D155
:10241000A3490978491CC8B2FEF772FAA6480078A9
:10242000012887D10020A14948759D480078401CAB
:102430009B49087000209B4908709F4908701DE265
:102440009748007803283BD196480078C0B99D484A
:10245000D0ED040AF8EEE00AB0EE600AFEF7ECFCFC
:102460009B48007801289DD18D480078401C8C49FC
:102470000870012097490880002095490870FDE107
:102480008848007801288DD185490978491CC8B24F
:10249000FEF736FA884800780128B4D10020834935
:1024A00048757F480078401C7D49087000207D49B0
:1024B000087001208749088000207F490870DDE10D
:1024C00077480078042837D176480078C0B9FEF7FD
:1024D000ECFD8048B0F9000010F1020F93D1704874
:1024E0000078401C6E49087000207A4908807048C6
:1024F00090ED000AB8EEC00A6E4880ED000ABDE11A
:102500006848007801289AD165490978491CC8B201
:10251000FEF7F6F968480078012890D10020634959
:1025200048755F480078401C5D49087000205D498F
:10253000087061490870A1E15948007805282DD13B
:102540005848007870B9FFF749FC5D4800780128C9
:1025500095D153480078401C5149087000205849D3
:1025600008708BE14F480078012888D14C490978E0
:10257000491CC8B2FEF7C4F94F48007801289ED123
:1025800000204A49487546480078401C4449087074
:10259000002044490870484908706FE140480078BD
:1025A000062848D13F48007848BB464890ED031ABA
:1025B000B8EEC11AF0EE410A90ED011AB8EEC11A58
:1025C000B0EE410AFEF716FE3F480078012896D18A
:1025D0003E480078012892D131480078401C3049AB
:1025E000087000203849087038490870304890ED6C
:1025F000000AB8EEC00A2F4880ED000A3EE12948E3
:102600000078012897D126490978491CC8B2FEF7FD
:1026100077F92948007801288DD100202349487591
:102620001F480078401C1E49087000201D49087092
:102630002149087022E11A480078072859D1194821
:102640000078C0B91F48D0ED050AF8EEE00AB0EEF8
:10265000600AFEF7F1FB1E48007801289DD1104862
:102660000078401C0E49087001201B49088000209A
:102670001749087002E10B48007801288DD10849FC
:102680000978491CC8B2FEF73BF90B4800780128CD
:10269000B4D100200549487501480078401C1DE070
:1026A000C0020020C1020020500000205C09002070
:1026B000280000204C090020C2020020C302002094
:1026C0005B020020E4020020580200205902002092
:1026D0005A020020800200208802002081490870F0
:1026E00001208149088000208049087080490870D5
:1026F000C4E07C480078082837D17C480078C0B90D
:10270000FEF7D7FC7848B0F9000010F1020F91D124
:1027100074480078401C7349087000207249088092
:10272000744890ED000AB8EEC00A734880ED000AC4
:10273000A4E06E48007801289CD16A490978491CB8
:10274000C8B2FEF7DDF86A48007801280CD10020F5
:102750006A49487563480078401C62490870002047
:10276000624908706249087088E05E48007809286C
:102770002DD15E48007870B9FEF736F860480078D1
:1027800001287BD157480078401C5649087000202A
:102790005B49087072E05548007801286ED15149B4
:1027A0000978491CC8B2FEF7ABF8514800780128F7
:1027B00064D10020514948754A480078401C494975
:1027C00008700020494908704949087056E045489A
:1027D00000780A2837D145480078C0B9DFED490AAA
:1027E0009FED490AFEF706FD48480078012845D1CB
:1027F00047480078012841D13A480078401C3949BF
:1028000008700020414908704149087036E0374897
:102810000078012832D133490978491CC8B2FEF743
:102820006FF833480078012828D1002033494875D3
:102830002C480078401C2B49087000202B49087058
:102840002B4908701AE0274800780B2816D1FEF7AC
:102850009FFF30480068801C80B92848007D00F048
:10286000870040F04000254908754FF0FF302949A6
:10287000086000202849087028490870234800781B
:1028800002280BD022480078022807D0244800787C
:10289000022803D01A480078022822D1FEF778FFD8
:1028A0001C480068801CE0B90E4800781D4908707B
:1028B0001248007D00F07F00104908754FF0FF308E
:1028C0001449086000200749087010490870104931
:1028D0000870134908700A4908700F4908700F49B9
:1028E000087010BDC002002088020020C102002034
:1028F000C2020020280000204C0900205C090020B2
:102900005B02002000401C450080BB4458020020B0
:10291000590200205400002024000020250000203F
:102920005A0200209002002010B500F015F910BDE9
:1029300030B515480068154AB0FBF2F1481EB0F1F9
:10294000807F01D301201BE0481E4FF0E022506140
:1029500050170F22002807DA13071D0E0C4B00F04A
:102960000F04241F1D5503E013071C0E094B1C54B4
:1029700000BF00204FF0E02290610720106100208E
:1029800008B100BFFEE730BD00000020A0860100B6
:1029900018ED00E000E400E010B51548006840F4D0
:1029A0007000134908601348006840F001001149A5
:1029B000086000200F49083108600E4800680E4981
:1029C00008400C4908600D48091D0860081F006890
:1029D00020F48020091F0860002006490C3108609F
:1029E000FFF734FA4FF0006001498039086010BDEC
:1029F00088ED00E000380240FFFFF6FE10300024B2
:102A000010B50121054800F04AF808B101F032FD87
:102A10000121024800F034F810BD0000001400400D
:102A20007FB505460C4601212020FEF711FF0295D7
:102A3000A0B2ADF804000020ADF80600ADF80C001F
:102A400001A90E4800F046F8012211460B4800F09B
:102A500037F80021094800F016F837208DF80000FB
:102A600001208DF8010003208DF8020001208DF86F
:102A700003006846FEF71AFE7FBD00000014004008
:102A8000CA430282704721B1028842F001020280EB
:102A900004E002884FF6FE731A400280704730B59A
:102AA0000246002000230024158A05EA01039589C7
:102AB00005EA010413B10CB1012000E0002030BD93
:102AC0001AB183890B43838102E083898B4383811D
:102AD0007047000000220288184B98420ED0184B15
:102AE00098420BD0B0F1804F08D0164B984205D0D9
:102AF000154B984202D0154B984204D14FF68F7374
:102B00001A404B881A43124B984207D0114B9842F7
:102B100004D04FF6FF431A400B891A4302804B68DA
:102B2000C3620B880385054B984202D0044B984240
:102B300001D18B7A03860123838270470000014014
:102B4000000401400004004000080040000C004068
:102B500000100040001400400448006820B1034801
:102B60000068401E01490860704700002C000020EA
:102B700000B58FB01948FDF711FF00211748FDF788
:102B800001FF00BF1548FDF7B5FF0028FAD164200A
:102B9000049004200B9003200C9000200D900890CE
:102BA0004FF480600690801009900D48019000203D
:102BB0000E90079005904FF480300A90C00200906C
:102BC000002003900748029069460448FDF7BEFFC5
:102BD00001210248FDF7D6FE0FB000BD4060024063
:102BE000044C00404A08002030B58FB004460D4622
:102BF0001448FDF7D3FE00BF1248FDF77BFF002805
:102C0000FAD1049504200B9003200C9000200D9025
:102C100008904FF480600690002009900A480190C7
:102C200000200E90079005904FF400300A9080022B
:102C3000009040200390029469460248FDF786FF09
:102C40000FB030BD70600240044C004010B540F23F
:102C50002441134800F002FE01280BD1104800F077
:102C6000FBFE1048FDF750FFC0F16400C4B200F055
:102C700023F814E040F22661094800F0EFFD012836
:102C80000DD140F22661064800F053FD0648054983
:102C90004039C860002103483030FDF773FE10BD95
:102CA000004C0040406002403D00002010B504464A
:102CB000204601F059FB10BD10B500210848FDF772
:102CC00061FE00BF0648FDF715FF0028FAD1642118
:102CD0000348FDF767FF01210148FDF753FE10BDD2
:102CE0004060024000B58FB01948FDF757FE002143
:102CF0001748FDF747FE00BF1548FDF7FBFE00280B
:102D0000FAD16420049004200B9003200C90002042
:102D10000D9008904FF480600690801009900D4847
:102D2000019000200E90079005904FF480300A909B
:102D3000C0020090002003900748029069460448B2
:102D4000FDF704FF01210248FDF71CFE0FB000BD96
:102D500088640240041001400403002070B504465A
:102D60000D4600BF0748FDF7C5FE0028FAD105480B
:102D7000001D056003480C30046001210148FDF787
:102D800001FE70BDB864024030B58FB004460D46F8
:102D90001448FDF703FE00BF1248FDF7ABFE002804
:102DA000FAD1049504200B9003200C9000200D9084
:102DB00008904FF480600690002009900A48019026
:102DC00000200E90079005904FF400300A9080028A
:102DD000009040200390029469460248FDF7B6FE39
:102DE0000FB030BDB86402400410014010B540F28D
:102DF0002441524800F032FD01287CD14F4800F0B8
:102E00002BFE4F48FDF780FEC0F16400C4B24D4870
:102E1000046000F0DDFD062C77D14B480078EE28E9
:102E200073D1002008E04849095C484A12781144EF
:102E3000464A1170411CC8B20528F4DB424840796B
:102E40004249097888425DD14148406980F00800D4
:102E50003F4948613C4840783B49897840EA012035
:102E600000EE100AB8EEC00A3A4880ED070A36486C
:102E7000C0783549097940EA012000EE100AB8EE21
:102E8000C00A344880ED080A90ED070ADFED320AE7
:102E900020EE200A9FED311AC0EE010A9FED300AA4
:102EA000B2EE041A11EE200ADFED2E0A30EE200AEF
:102EB00080ED010A90ED080ADFED270A20EE200AD6
:102EC0009FED261AC0EE010A9FED270AB1EE041A03
:102ED00011EE200ADFED230A30EE200A80ED020A0F
:102EE00090ED010ABDEEC00A204880ED010A1948A4
:102EF00090ED020A01E009E007E0BDEEC00A1B48C0
:102F000080ED020A00201149087015E040F22661A8
:102F10000A4800F0A3FC01280ED140F226610748C0
:102F200000F007FC4FF03D5005497C390860002156
:102F300003483030FDF726FD10BD000000100140B1
:102F40008864024034000020040300203100002087
:102F5000000002402809002000404E450000804546
:102F60000080BB450000704200803B455C090020AA
:102F700010B50446204601F06FF810BD70B5044648
:102F80000D4600BF0848FDF7B5FD0028FAD10648F8
:102F9000001D05600448A038C0F8AC40012102487B
:102FA000FDF7F0FC70BD0000A060024010B52DEDF3
:102FB000048B40F22441644800F050FC01287CD18D
:102FC000614800F049FD6148FDF79EFDC0F57A704B
:102FD000C4B200F013FD0E2C70D15D480078AA2811
:102FE000FAD1002008E05A49095C5A4A1278114483
:102FF000584A1170411CC8B20D28F4DB5448407B7C
:103000005449097888427CD151490979504A52790A
:1030100041EA022108B2FDF754F941EC190B9FED8A
:103020004E0B53EC102BFDF7DDF841EC180BFDF7C0
:1030300059F94B49486046498979454AD27941EA6C
:10304000022108B2FDF73DF941EC190B9FED420B4F
:1030500053EC102BFDF7C6F841EC180BFDF742F9C5
:103060003F4988603A49097A394A527A41EA02214D
:1030700008B2FDF726F941EC190B9FED370B53EC25
:10308000102BFDF7AFF841EC180BFDF72BF9344985
:10309000C8602F48807A2E49C97A40EA012000EEA4
:1030A000100AB8EEC00A2F4880ED060A90ED060A15
:1030B000DFED2D0A20EE200A01E02DE02BE09FED50
:1030C0002B1AC0EE010A9FED2A0AB1EE041A11EE86
:1030D000200A80ED000A224890ED000ABDEEC00AE9
:1030E000244880ED030A1E4890ED010ABDEEC00A97
:1030F00010EE100A00B21F490882194890ED020A2A
:1031000000E005E0BDEEC00A10EE100A00B24882F1
:1031100000201049087014E040F226610A4800F0CF
:103120009DFB01280DD140F22661074800F001FB0C
:10313000114806498839C860002104481830FDF755
:1031400021FCBDEC048B10BD0044004088600240AF
:10315000850300203C0000200000000000005940D2
:103160004C0900202809002000404E450000804501
:1031700000803B455C09002000003D2010B504465E
:10318000204600F0EBFF10BD00B58FB01948FDF7E9
:1031900005FC00211748FDF7F5FB00BF1548FDF7BA
:1031A000A9FC0028FAD16420049004200B9003208D
:1031B0000C9000200D9008904FF4806006908010D5
:1031C00009900D48019000200E90079005904FF453
:1031D00080300A90C00200900020039007480290BF
:1031E00069460448FDF7B2FC01210248FDF7CAFB1D
:1031F0000FB000BD28600240044800408207002054
:1032000070B504460D4600210848FDF7BBFB00BF22
:103210000648FDF76FFC0028FAD104485838C56508
:10322000446601210148FDF7ADFB70BD58600240C6
:1032300030B58FB004460D461448FDF7AFFB00BF14
:103240001248FDF757FC0028FAD1049504200B9092
:1032500003200C9000200D9008904FF480600690A1
:10326000002009900A48019000200E9007900590D8
:103270004FF400300A9080020090402003900294A6
:1032800069460248FDF762FC0FB030BD586002404D
:103290000448004070B59AB0002440F22441EB4845
:1032A00000F0DCFA01287AD1E84800F0D5FBE848C4
:1032B000FDF72AFCC0F16400C6B200F0E7F9E5486A
:1032C0000078AB2834D1032007E0E2490B5C2146AB
:1032D000621CD4B201AA5354401CDE494978891EAD
:1032E0008142F2DCDB484078801EDA49095CD9482B
:1032F0004078401ED74A105C41EA0025214601A8CB
:10330000FDF79AFAA842DDD1D248807800F0070094
:1033100001280ED1D048007D00F0F800CE49087594
:103320000846007D40F0010008750120CB49087077
:103330006DE1C848807800F00700022875D1C848C0
:103340000068801C002862D1C2488078C010C5493E
:10335000087008460078012803D008460078022843
:103360001ED10120C0490870C0490870B948807B4F
:103370000004B849497B40EA0120B649097B08436B
:10338000BB494860B348407C0004B249097C40EA2C
:103390000120B049C97B0843B549C86037E037E12F
:1033A000B0480078032803D0AE480078062811D131
:1033B000A848007D0004A749C97C40EA0120A5492E
:1033C000897C0843AA4948610120A7490870A74998
:1033D00008701CE0A3480078092805D10120A24903
:1033E0000870A249087012E09E4800780A2805D1AA
:1033F00001209D4908709D49087008E099480078AF
:1034000028B99548007D00F08700934908759148D8
:10341000407D00F00700012808D1934908709349C6
:10342000087007208F4908700EE01CE08948407D35
:1034300000F00700022807D101208B4908708B4952
:1034400008700820874908708348007D00F0F80064
:10345000814908750846007D40F00200087501208A
:103460007E490870D3E07B48807800F0070003288D
:103470006ED17848407D00F0080008284DD175488D
:10348000407900047349097940EA01207149C978FB
:103490000843774908606F48007AC0036D49C979CD
:1034A00040EA01206B49897908437149886069487D
:1034B000C07A00046749897A40EA01206549497A5F
:1034C00008436B4908616348807B00046149497B7C
:1034D00040EA01205F49097B0843654948605D482F
:1034E000407CC0035B49097C40EA01205949C97B03
:1034F00008435F49C8605748007D00045549C97CAE
:1035000040EA01205349897C084359494861012018
:10351000554908700220554908704E48407D0121E8
:10352000B1EB201F05D15348007810B90120514953
:1035300008704948007D00F0F800474908750846C2
:10354000007D40F0030008750120444908705EE0EA
:103550004048807800F00700042858D13D48407961
:1035600000043C49097940EA01203A49C9780843F6
:103570003F4908603748007AC0033649C97940EAB4
:103580000120344989790843394988603148C07A33
:1035900000043049897A40EA01202E49497A0843DB
:1035A000334908612B48807B00042A49497B40EA63
:1035B00001202849097B08432D4948602548407C63
:1035C000C0032449097C40EA01202249C97B084301
:1035D0002749C8601F48007D00041E49C97C40EA95
:1035E00001201C49897C08432149486101201E496A
:1035F000087003201D4908701748007D00F0F8008E
:10360000154908750846007D40F0040008751BE068
:1036100040F226610D4800F021F9012814D140F252
:1036200026610A4800F085F84FF07460084928398F
:103630008860002106483030FDF7A4F900200E49CB
:1036400008600E49C1F888021AB070BD00480040F9
:1036500028600240820700205C090020260000202C
:1036600050000020BD020020240000202500002082
:10367000E4020020C20200208402404200004042D6
:1036800010B50446204600F0EBFD10BD10B500213A
:103690000848FDF777F900BF0648FDF72BFA002828
:1036A000FAD164210348FDF77DFA01210148FDF7B5
:1036B00069F910BD2860024010B540F22441144859
:1036C00000F0CCF801280CD1114800F0C5F91148E0
:1036D000FDF71AFAC0F164000F49087000F0A6F96E
:1036E00014E040F226610A4800F0B8F801280DD134
:1036F00040F22661064800F01CF8084805491C39CC
:103700000860002103487830FDF73CF910BD000047
:1037100000140140286402403D00002000003D20CC
:1037200001F40072B2F5007F00D100BFCA430280ED
:10373000704710B50022002340F66A14A14200D160
:1037400000BF0A1201249440A3B2DC43048010BDE0
:1037500021B1828942F40052828104E082894DF6CF
:10376000FF731A40828170471AB1838A0B438382A8
:1037700002E0838A8B4383827047000000B58FB0DC
:103780001A48FDF70BF900211848FDF7FBF800BFB8
:103790001648FDF7AFF90028FAD14FF47A7004907B
:1037A00004200B9003200C9000200D9008904FF403
:1037B00080600690801009900D48019000200E90C6
:1037C000079005904FF480300A90C00200900020CE
:1037D00003900848029069460448FDF7B7F90121B3
:1037E0000248FDF7CFF80FB000BD0000886002402E
:1037F000044400408503002030B58FB004460D46D8
:103800001448FDF7CBF800BF1248FDF773F9002804
:10381000FAD1049504200B9003200C9000200D9009
:1038200008904FF480600690002009900A480190AB
:1038300000200E90079005904FF400300A9080020F
:10384000009040200390029469460248FDF77EF9FB
:103850000FB030BDA06002400444004070B5024685
:10386000002400230025002040F66A16B14200D152
:1038700000BFC1F3421501F01F03012606FA03F34E
:10388000012D02D19689334006E0022D02D1168A1D
:10389000334001E0968A33400C12012606FA04F404
:1038A0001688344013B10CB1012000E0002070BD37
:1038B000F0B50346002400260025002040F66A17D4
:1038C000B94200D100BF1846C1F3421401F01F06EF
:1038D000012707FA06F5012C01D10C3004E0022C77
:1038E00001D1103000E014301AB107682F4307608F
:1038F00002E00768AF430760F0BD00002DE9FF4715
:1039000005460E460024A14600BFA046B08900B17E
:1039100000BF2C8A24F44054F08804432C82AC89E4
:1039200041F20C608443B0883189084371890843AF
:103930000443AC81AC8A24F44074B0890443AC8263
:103940006846FDF7B5FF2048854202D01F488542F2
:1039500002D1DDF80C9001E0DDF80890A88900F4B0
:10396000004040B109EBC90000EB09103168490083
:10397000B0FBF1F707E009EBC90000EB0910316873
:103980008900B0FBF1F76420B7FBF0F004012009D7
:10399000642101FB1078A88900F4004040B1322076
:1039A00000EBC800B0FBF1F000F00700044308E0B2
:1039B000322000EB08106421B0FBF1F000F00F00A2
:1039C00004432C81BDE8FF87001001400014014032
:1039D00010B500210848FCF7D5FF00BF0648FDF7E9
:1039E00089F80028FAD164210348FDF7DBF80121AA
:1039F0000148FCF7C7FF10BD8864024010B50021E4
:103A00000948FCF7BFFF00BF0748FDF773F800281F
:103A1000FAD14FF47A710448FDF7C4F80121024845
:103A2000FCF7B0FF10BD00008860024010B5002117
:103A30000848FCF7A7FF00BF0648FDF75BF8002821
:103A4000FAD164210348FDF7ADF801210148FCF7E4
:103A500099FF10BD2864024001468888C0F3080021
:103A60007047000010B52DED048BF0EE408A9FEDFD
:103A7000820AB0EE409A9FED800AB0EE408A7F48FD
:103A800090ED000A30EE680AB0EE408A7C4800787B
:103A9000012871D19FED7B0AB4EEC08AF1EE10FAD5
:103AA0001FDB764890ED000ADFED770AB4EEE00AFE
:103AB000F1EE10FA15DD90ED000ADFED740AB4EEB8
:103AC000E00AF1EE10FA0CD24FF480517048FDF785
:103AD000E8FA7048007D00F0870040F028006D494A
:103AE00008759FED680AB4EEC08AF1EE10FA10D3A3
:103AF000624890ED000AB5EEC00AF1EE10FA10DD52
:103B000090ED000ADFED600AB4EEE00AF1EE10FA83
:103B100007D84FF480515E48FDF7C5FA01205E4991
:103B20000870564890ED010AF3EE090AB4EEE00A77
:103B3000F1EE10FA08DA90ED020AF3EE090AB4EE9B
:103B4000E00AF1EE10FA07DB4FF480515048FDF720
:103B5000AAFA022050490870484890ED000AB5EED4
:103B6000C00AF1EE10FA07D84FF480514848FDF72B
:103B70009AFA02204849087041480078012878DD07
:103B80003E4890ED000ADFED400AB4EEE00AF1EEA7
:103B900010FA18DD90ED000ADFED3C0AB4EEE00A01
:103BA000F1EE10FA0FD24FF480513948FDF779FA4F
:103BB00001203A4908703748007D00F0870040F046
:103BC0002800344908752D4890ED000ADFED2E0AD3
:103BD000B4EEE00AF1EE10FA06D99FED2A0AB4EE2F
:103BE000C08AF1EE10FA0AD84FF480512848FDF748
:103BF0005AFA0020294908700120274908701F48F7
:103C000090ED010AF3EE090AB4EEE00AF1EE10FAC3
:103C100008DA90ED020AF3EE090AB4EEE00AF1EEDA
:103C200010FA0ADB4FF480511948FDF73CFA0020E6
:103C30001A490870022018490870104890ED000ACF
:103C4000B5EEC00AF1EE10FA08D390ED000ADFEDF0
:103C5000140AB4EEE00AF1EE10FA0ADB4FF48051D8
:103C60000B48FDF720FA00200C49087002200A4991
:103C70000870BDEC048B10BD000000004C09002052
:103C8000250000200000964300401C4500A00C4683
:103C9000000402405C0900205B0200206C0200204E
:103CA00000606A4600BFFEE710B52DED028BF0EE16
:103CB000408A9FED650AB0EE408A644890ED010AA3
:103CC000B5EEC00AF1EE10FA1FD2614800780A285A
:103CD0000ADA5F480078401C5D4908705B4890ED47
:103CE000040A80ED010A13E04FF400615948FDF722
:103CF000DAF94FF480615748FDF7D5F900205449AF
:103D0000087002205449087002E0002050490870F1
:103D10004E4890ED010A30EE680AB0EE408A90ED10
:103D2000010A80ED040AB5EEC08AF1EE10FA02D263
:103D3000B1EE480A01E0B0EE480ADFED480AB4EE01
:103D4000E00AF1EE10FA2ADB404890ED010A30EE6D
:103D5000680AB0EE408AB5EEC08AF1EE10FA0DD2D4
:103D60003F48007D00F0870040F008003C4908759E
:103D70004FF480613748FDF794F962E0B5EEC08AF0
:103D8000F1EE10FA5DDD3648007D00F08700344921
:103D900008754FF400612F48FDF783F951E0B5EE47
:103DA000C08AF1EE10FA02D2B1EE480A01E0B0EE9C
:103DB000480ADFED2A0AB4EEE00AF1EE10FA40D22A
:103DC000B5EEC08AF1EE10FA1BD29FED260AB4EED2
:103DD000C08AF1EE10FA06D2DFED1B0AB0EE480AF7
:103DE000FDF76EF92DE04FF480611A48FDF75BF99D
:103DF00000201D4908701D490860012016490870FF
:103E00001FE0B5EEC08AF1EE10FA1ADB9FED180A3A
:103E1000B4EEC08AF1EE10FA06DDDFED0B0AB0EE6B
:103E2000480AFDF74DF90CE04FF400610948FDF731
:103E30003AF900200C4908700C4908600120064935
:103E40000870BDEC028B10BD0000000028090020A6
:103E5000A702002000100240580200200000FA448F
:103E60005C090020000048C3780200207C0200208A
:103E70000000484310B52DED028BF0EE408A9FED17
:103E8000630AB0EE408A624890ED020AB5EEC00ABD
:103E9000F1EE10FA1FD25F4800780A280ADA5D486E
:103EA0000078401C5B490870594890ED050A80ED88
:103EB000020A13E04FF400715748FDF7F4F84FF48D
:103EC00080715548FDF7EFF8002052490870022034
:103ED0005249087002E000204E4908704C4890EDAD
:103EE000020A30EE680AB0EE408A90ED020A80EDD8
:103EF000050AB5EEC08AF1EE10FA02D2B1EE480A18
:103F000001E0B0EE480ADFED460AB4EEE00AF1EE59
:103F100010FA25DDB5EEC08AF1EE10FA0DDD41484C
:103F2000007D00F0870040F010003E4908754FF416
:103F300080713948FDF7B5F864E0B5EEC08AF1EE5E
:103F400010FA5FD23748007D00F0870040F018007B
:103F5000344908754FF400712F48FDF7A2F851E07D
:103F6000B5EEC08AF1EE10FA02D2B1EE480A01E0D5
:103F7000B0EE480ADFED2A0AB4EEE00AF1EE10FADC
:103F800040D2B5EEC08AF1EE10FA1BD29FED260AA0
:103F9000B4EEC08AF1EE10FA06D2F0EE480A9FEDB8
:103FA0001B0AFDF78DF82DE04FF400711A48FDF75C
:103FB0007AF800201D4908701D4908600120174942
:103FC00008701FE0B5EEC08AF1EE10FA1ADD9FED21
:103FD000190AB4EEC08AF1EE10FA06DDF0EE480AD6
:103FE0009FED0A0AFDF76CF80CE04FF480710A4867
:103FF000FDF759F800200D4908700D4908600120AF
:1040000006490870BDEC028B10BD000000000000E6
:1040100028090020A80200200010024059020020B8
:104020000000FA445C090020000048C37802002028
:104030007C0200200000484302E008C8121F08C1AB
:10404000002AFAD170477047002001E001C1121F19
:10405000002AFBD17047000010B588B0044601214A
:104060000846FDF7E5FB01211020FDF701FC0121C9
:104070008805FDF7DDFB072209213548FCF7EEFF37
:1040800007220A213248FCF7E9FF02208DF80C00D4
:1040900003208DF80D0000208DF80E0001208DF812
:1040A0000F004002029002A92948FCF78FFF4FF44D
:1040B0008060029002A92648FCF788FF0494002043
:1040C000ADF81400ADF81600ADF81800ADF81C00FE
:1040D0000C20ADF81A0004A91E48FFF70FFCFEF7EC
:1040E00001FE0A210020FEF74FFE0122402119485F
:1040F000FFF73AFB012280211648FFF735FB01222A
:1041000010211548FCF704FD25208DF8040001203E
:104110008DF805008DF806008DF8070001A8FDF761
:10412000C5FA012240F224410A48FFF7C1FB0122EF
:1041300040F226610748FFF7BBFB01210548FFF766
:1041400007FB40210348FFF7EBFA08B010BD000061
:104150000000024000100140B864024010B588B071
:10416000044601210820FDF763FB01214804FDF707
:104170006FFB01214805FDF75BFB07220521354850
:10418000FCF76CFF072206213248FCF767FF02208C
:104190008DF80C0003208DF80D0000208DF80E0026
:1041A00001208DF80F002020029002A92948FCF779
:1041B0000DFF4020029002A92648FCF707FF049457
:1041C0000020ADF81400ADF81600ADF81800ADF8F9
:1041D0001C000C20ADF81A0004A91F48FFF78EFB45
:1041E000FFF7CCFA0A210020FFF706FB012240214D
:1041F0001948FFF7B9FA012280211748FFF7B4FAEE
:10420000012210211548FCF783FC26208DF80400BC
:1042100001208DF8050002208DF8060001208DF8A0
:10422000070001A8FDF742FA012240F224410A48A2
:10423000FFF73EFB012240F226610748FFF738FBFB
:1042400001210548FFF784FA40210348FFF768FA87
:1042500008B010BD000C024000440040A0600240C5
:1042600010B588B0044601210220FDF7E1FA0121D2
:104270008804FDF7EDFA01214805FDF7D9FA072278
:104280000A213648FCF7EAFE07220B213348FCF7E7
:10429000E5FE02208DF80C0003208DF80D000020B3
:1042A0008DF80E0001208DF80F008002029002A907
:1042B0002A48FCF78BFE4FF40060029002A92748C1
:1042C000FCF784FE04940020ADF814004FF4005075
:1042D000ADF816000020ADF81800ADF81C000C2059
:1042E000ADF81A0004A91E48FFF708FBFEF74CFFC3
:1042F0000A210020FEF79CFF012240211848FFF709
:1043000033FA012280211648FFF72EFA01221021EC
:104310001448FCF7FDFB27208DF8040001208DF8E0
:1043200005008DF806008DF8070001A8FDF7BEF91D
:10433000012240F224410A48FFF7BAFA012240F272
:1043400026610748FFF7B4FA01210548FFF700FA94
:1043500040210348FFF7E4F908B010BD0004024013
:10436000004800405860024010B588B00446012162
:104370000420FDF75DFA0121C804FDF769FA012167
:104380004805FDF755FA08220A213748FCF766FE72
:1043900008220B213448FCF761FE02208DF80C0046
:1043A00003208DF80D0000208DF80E0001208DF8FF
:1043B0000F008002029002A92B48FCF707FE4FF481
:1043C0000060029002A92848FCF700FE0494002037
:1043D000ADF814004FF40050ADF81600C010ADF861
:1043E00018000020ADF81C000C20ADF81A0004A93C
:1043F0001E48FFF783FAFEF7BBFB0A210020FEF7F9
:10440000F3FB012240211948FFF7AEF90122802178
:104410001648FFF7A9F9012210211548FCF778FB8F
:1044200034208DF8040001208DF805008DF8060079
:104430008DF8070001A8FDF739F9012240F2244167
:104440000A48FFF735FA012240F226610748FFF7D4
:104450002FFA01210548FFF77BF940210348FFF7B8
:104460005FF908B010BD000000080240004C004099
:104470007060024067480088401C66490880084612
:104480004088401C488008468088401C8880084638
:10449000C088401CC88008460089401C0881084626
:1044A0004089401C488108468089401C8881084614
:1044B000C089401CC881084680880A2804DB084659
:1044C00080880A388880A3E05248C0881428FADA25
:1044D00050480089322817DB4E48008932384D4950
:1044E00008814D480078012804D14C480068401CE0
:1044F0004A4908604A4800780128E4D149480068E0
:10450000401C4849086083E042484089C82847DB8E
:1045100040484089C8383F494881434800780128CD
:1045200003D041480078022804D140480068401C6C
:104530003E4908603E480078012803D03C48007896
:10454000022804D13B480068401C3A4908603A48B8
:10455000B0F90000002805DB37480088401C00B295
:10456000354908803548B0F90000002805DB33489C
:104570000088401C00B2314908803148006800289A
:1045800004DB2F480068401C2D4908602D48006856
:1045900000283DDB2B480068401C2A49086037E0B2
:1045A0001C48C08940F2DC51884231DB1948C0897F
:1045B000A0F2DC501749C88119480078012811D1B0
:1045C000214890ED000ADFED210AB4EEE00AF1EE99
:1045D00010FA07DD90ED000ADFED1D0A30EE600AEB
:1045E00080ED000A0C480078012811D1164890EDA2
:1045F000000ADFED180AB4EEE00AF1EE10FA07D275
:1046000090ED000ADFED120A30EE200A80ED000A7C
:1046100070470000740900206D0200205C02002039
:104620006C0200206402002070020020740200204E
:10463000780200207C0200208002002088020020F6
:1046400050000020540000204C09002000007A4453
:104650000000484300606A4601B5044900980860BC
:1046600000BF024800680028FBD108BD2C000020D4
:10467000FEF75EF9FCF794F8574890ED000A80EDDC
:10468000030A90ED010A80ED040A90ED020A80ED24
:10469000050A06E001210020FCF786FA4F48FFF7E3
:1046A000DBFF4F4800780028F4D001204D49087006
:1046B0004D48007D40F0F0004B49087501214B4802
:1046C000FEF7E1F94FF47A604949086083E0494810
:1046D000C088142867DB4748C08814384549C8801B
:1046E00045480078012803D10220434908705AE068
:1046F00041480078002856D03F480078022852D11F
:104700003E480078012841D13D4800780B283BD233
:10471000DFE800F03A06101A3A3A2434372E310016
:104720003848D0ED010AF8EEE00AB0EE600AFCF776
:10473000FFFE2AE03348D0ED030AF8EEE00AB0EEBF
:10474000600AFCF757FF20E02E48D0ED050AF8EE8E
:10475000E00AB0EE600AFCF78DFE16E02948D0EDC5
:10476000050AF8EEE00AB0EE600AFCF7C1FD0CE0C5
:10477000FCF796FD09E0FCF709FE06E0FCF754FEA5
:1047800003E0FCF72BFE00E000BF0CE01B480078C4
:10479000022802D1FDF786FD05E0184800780328BD
:1047A00001D1FDF7C9FB13488089B0F5C87F12DB42
:1047B00015480078012804D1FDF716F900201249A8
:1047C00008701248007818B911480078012802D101
:1047D0000120104908607AE728090020A08601001E
:1047E0006E0200206F0200205C09002000140040CF
:1047F000280000207409002024000020250000204B
:10480000BD020020E40200202600002090020020CB
:10481000BE020020A882414270B504460D46AA207F
:10482000E07025712079E178084460710621204606
:10483000FEF794FA70BD70B504460D46AA20E070EC
:1048400025712079E1780844607106212046FEF741
:1048500095FB70BD7448000800000020C4020000F1
:10486000A6040008CC490008C4020020240B000064
:104870004840000811847A030A680901020304060B
:104880000708090CA910011B3A01414906115AFFFA
:1048900001112808C1814001C0804104690C290828
:1048A000E918A91C091A30091638093660092E7052
:1048B000092F6000FF00C0C101C30302C2C6060782
:1048C000C705C5C404CC0C0DCD0FCFCE0E0ACACB84
:1048D0000BC90908C8D81819D91BDBDA1A1EDEDF84
:1048E0001FDD1D1CDC14D4D515D71716D6D2121314
:1048F000D311D1D010F03031F133F3F23236F6F774
:1049000037F53534F43CFCFD3DFF3F3EFEFA3A3BC3
:10491000FB39F9F83828E8E929EB2B2AEAEE2E2FA3
:10492000EF2DEDEC2CE42425E527E7E62622E2E353
:1049300023E12120E0A06061A163A3A26266A6A793
:1049400067A56564A46CACAD6DAF6F6EAEAA6A6B03
:10495000AB69A9A86878B8B979BB7B7ABABE7E7F03
:10496000BF7DBDBC7CB47475B577B7B67672B2B393
:1049700073B17170B05090915193535292965657B3
:1049800097559594549C5C5D9D5F9F9E5E5A9A9B43
:104990005B99595898884849894B8B8A4A4E8E8F23
:1049A0004F8D4D4C8C4484854587474686824243D3
:1049B00083418180424032011AFF0132021AFE080F
:0C49C0000114691609141E012412FF00E6
:040000050800018965
:00000001FF
